:100000000C94D91A0C940A1B0C940A1B0C940A1B0E
:100010000C940A1B0C940A1B0C940A1B0C940A1BCC
:100020000C940A1B0C940A1B0C940A1B0C940A1BBC
:100030000C940A1B0C94DD6D0C940A1B0C940A1B87
:100040000C940A1B0C9408870C940A1B0C940A1B32
:100050000C940A1B0C940A1B0C94B8E40C9405F63F
:100060000C940A1B0C948B300C940A1B0C940A1BE6
:100070000C940A1B0C940A1B0C940A1B0C940A1B6C
:100080000C940A1B0C940A1B0C940A1B0C940A1B5C
:100090000C940A1B0C940A1B0C940A1B0C940A1B4C
:1000A0000C940A1B0C940A1B0C940A1B0C940A1B3C
:1000B0000C940A1B0C940A1B0C940A1B0C940A1B2C
:1000C0000C940A1B0C940A1B0C940A1B0C940A1B1C
:1000D0000C940A1B0C940A1B0C940A1B0C940A1B0C
:1000E0000C940A1BBE30C530D930E630F0300A31EE
:1000F000F5300A31FA30FF300A310731C4B4F6B4B2
:10010000F8B405B50AB5C2B413B524F327F316F352
:100110001AF320F35EF32BF32FF335F339F33DF3AA
:1001200043F347F34BF35EF351F355F359F321F5E2
:1001300026F52BF535F53FF5B8F549F551F559F5A7
:1001400063F56DF577F586F590F5B8F59AF5A4F5B4
:10015000AEF5084AD73B3BCE016E84BCBFFDC12F34
:100160003D6C74319ABD56833DDA3D00C77F11BEA8
:10017000D9E4BB4C3E916BAAAABE000000803F05AB
:10018000A84CCDB2D44EB93836A9020C50B99186DC
:1001900088083CA6AAAA2ABE000000803F000D9451
:1001A0004B0E0D94DB0D4E414E494E495459494E6C
:1001B00046CDCCCC3D0AD7233C17B7D13877CC2BD2
:1001C000329595E6241FB14F0A000020410000C877
:1001D0004200401C4620BCBE4CCA1B0E5AAEC59DF8
:1001E00074434F4D4D554E49434154494F4E004481
:1001F000525952554E004552524F525300494E46A5
:100200004F004543484F00536C6565702E2E2E00FD
:10021000205A3A200020593A200042656420583A7A
:1002200020005072696E742061626F7274656400A0
:1002300047312045333020463630300047323820B1
:1002400058205900473120452D3230204634303077
:1002500030004739310047323820582059004D6569
:10026000736820706F696E742063616E6E6F7420A6
:100270006265207265736F6C7665640A00526573FF
:10028000756D696E67207072696E7400426C6F6381
:100290006B73204F6E652072656164792E00436C2C
:1002A00069636B20746F20726573756D652E2E2ED9
:1002B000004E6F206D6F76652E00456E6420666976
:1002C0006C65206C6973740A00426567696E20660C
:1002D000696C65206C6973740A004D3132350053C6
:1002E00044207072696E74696E672062797465204B
:1002F000004E6F74205344207072696E74696E678B
:100300000A005072696E742074696D653A2000505D
:10031000726F7465637465642050696E0A006F6E55
:100320002E0A006F66662E0A004732362044656248
:100330007567200045256920257300426C6F636B4B
:1003400073204F6E652072656164792E000202FD94
:1003500001F601EF01E1016F666600444542554731
:100360003A004D3131332053006F6B00426C6F63A4
:100370006B73204F6E65204F66662E00454D4552CB
:1003800047454E43595F50415253455200434153F4
:10039000455F4C494748545F4252494748544E458F
:1003A000535300544F47474C455F4C4947485453BB
:1003B00000534F4654574152455F504F57455200E6
:1003C0004255494C445F50455243454E54004C45BC
:1003D00056454C494E475F44415441005A5F505284
:1003E0004F4245004155544F4C4556454C005052E4
:1003F000494E545F4A4F420050524F475245535363
:10040000004155544F5245504F52545F54454D5042
:1004100000564F4C554D45545249430045455052A6
:100420004F4D0053455249414C5F584F4E5F584F16
:100430004646004649524D574152455F4E414D4553
:100440003A4D61726C696E20312E312E382028476A
:1004500069746875622920534F555243455F434F75
:1004600044455F55524C3A68747470733A2F2F6745
:1004700069746875622E636F6D2F426C6F636B7366
:10048000546563686E6F6C6F67792F426C6F636B36
:10049000732D4669726D776172652050524F544FCB
:1004A000434F4C5F56455253494F4E3A312E302000
:1004B0004D414348494E455F545950453A426C6F4F
:1004C000636B73204F6E6520455854525544455216
:1004D0005F434F554E543A3120555549443A3335D0
:1004E0003732313661362D376636642D3433346514
:1004F0002D386663652D61323665303239353836D0
:1005000032380A002F2F200066696C616D656E74A9
:100510003A20007A5F6D696E3A2000795F6D696EEE
:100520003A2000785F6D696E3A20005265706F72F4
:1005300074696E6720656E6473746F702073746184
:100540007475730A004D31343520533C696E64650F
:10055000783E206F7574206F662072616E6765202B
:1005600028302D31290A0053657474696E67205450
:10057000726176656C20416363656C657261746954
:100580006F6E3A200053657474696E67205265740B
:100590007261637420416363656C65726174696F35
:1005A0006E3A200053657474696E67205072696EEC
:1005B0007420416363656C65726174696F6E3A2083
:1005C0000053657474696E67205072696E7420619F
:1005D0006E642054726176656C20416363656C655E
:1005E000726174696F6E3A2000000136372603FF8E
:1005F0003C3D380EFF2E303E12FFFF0C0809FFFF76
:10060000FF1A1C18FFFF08440AFF43FFFFFFFFFF0C
:10061000FF20643A0020693A0020703A0020643AD2
:100620000020693A0020703A006C636420636F6EAA
:1006300074726173742076616C75653A2000432989
:100640000A0061626C656420286D696E2074656DB6
:10065000702000436F6C64206578747275646573F4
:100660002061726520004D65736820706F696E743B
:100670002063616E6E6F74206265207265736F6CAB
:100680007665640A004D34323120696E636F727290
:1006900065637420706172616D6574657220757335
:1006A0006167650A004F66667365747320617070D8
:1006B0006C696564004572723A20546F6F20666100
:1006C000722100546F6F206661722066726F6D2018
:1006D0007265666572656E636520706F696E740A17
:1006E000003A20004F666673657420626574776512
:1006F000656E2070726F62657300207A5F6D696E3F
:100700003A20205A5F50524F42455F4F464653456C
:10071000545F4D494E207A5F6D61783A2020333026
:100720000A003A2000207A5F6D696E3A20202D334E
:1007300030207A5F6D61783A202033300A005072A1
:100740006F6265205A204F666673657400473238C1
:1007500020582059004E6F2063617365206C6967D3
:1007600068740A004163746976652045787472750F
:100770006465723A2000556E6B6E6F776E20636F02
:100780006D6D616E643A2022004D6573682056617C
:100790006C69646174696F6E2053746F7070656406
:1007A0002E00696E206D6F76655F746F2829206654
:1007B0006565645F76616C756520666F7220585957
:1007C0003A004C656176696E6720473236004732E1
:1007D000362048656174696E67204E6F7A7A6C6561
:1007E0002E004732362048656174696E6720426585
:1007F000642E00446F6E65205072696D696E6700EB
:10080000446F6E65205072696D696E670046697845
:100810006564204C656E677468205072696D652E42
:1008200000557365722D436F6E74726F6C6C6564E6
:10083000205072696D65002C2065793D0029202DBE
:100840003E202865783D002C2073793D0020436FC1
:100850006E6E656374696E6720776974682076656B
:1008600072746963616C206C696E65202873783DD1
:10087000002C2065793D0029202D3E202865783DFB
:10088000002C2073793D0020436F6E6E65637469A0
:100890006E67207769746820686F72697A6F6E740A
:1008A000616C206C696E65202873783D004C656131
:1008B00076696E6720473236002C2079693D00202A
:1008C0002020446F696E6720636972636C652061E4
:1008D000743A202878693D003F5370656369666902
:1008E000656420582C5920636F6F7264696E61745F
:1008F00065206F7574206F6620626F756E64732E4D
:100900000A003F28522965706561742076616C7514
:1009100065206E6F7420706C61757369626C653BE5
:10092000206D757374206265206174206C6561733D
:100930007420312E0A003F537065636966696564EF
:10094000206E6F7A7A6C652074656D706572617463
:10095000757265206E6F7420706C61757369626C5E
:10096000652E0A003F537065636966696564206699
:10097000696C616D656E742073697A65206E6F7441
:1009800020706C61757369626C652E0A003F53704C
:1009900065636966696564207072696D65206C6560
:1009A0006E677468206E6F7420706C617573696215
:1009B0006C652E0A003F5370656369666965642043
:1009C0006E6F7A7A6C652073697A65206E6F742019
:1009D000706C61757369626C652E0A003F537065B7
:1009E0006369666965642052657472616374696FD6
:1009F0006E204D756C7469706C696572206E6F74D1
:100A000020706C61757369626C652E0A003F5265D7
:100A10007472616374696F6E204D756C7469706C6B
:100A2000696572206D7573742062652073706563EB
:100A300069666965642E0A003F537065636966697B
:100A40006564206C617965722068656967687420E7
:100A50006E6F7420706C61757369626C652E0A002C
:100A60003F537065636966696564206265642074DC
:100A7000656D7065726174757265206E6F7420703B
:100A80006C61757369626C652E0A004732362063AB
:100A90006F6D6D616E6420737461727465642E2075
:100AA00057616974696E6720666F7220686561744A
:100AB00065722873292E0A004B494C4C45442E2060
:100AC0000025753A2530327500253032753A2530CB
:100AD00032750025756420253032753A253032751F
:100AE00000092000000000000000000000000000DD
:100AF0007FFFE00000000000000000000000007028
:100B000000E000000000000000000000000061F8AC
:100B10006000000000000000000000000041F8201C
:100B200000000000000000000000000040F0200075
:100B300000000000000000000000004060200000F5
:100B4000000000000000000000005801A07F8000AD
:100B50000000000000004104005C63A0FFC0000032
:100B600000000000002082005EF7A0FFC00000002F
:100B7000000000002082005EF7A0FFC0000000001F
:100B80000000004104005C63A07F800000000000C2
:100B900000008208005801A07F80000000000000D3
:100BA00001041000406020FFC000000000000001B0
:100BB00004100040F020FFC0000000000000008290
:100BC000080041F820FFC0000000000000004104C0
:100BD0000061F8603F00000000000000000000001D
:100BE0007000E01E0000000000000001FFFF807F99
:100BF000FFE00C0000000000000001FFFF8000008B
:100C0000000000000000000000000000007FFFE086
:100C10000000000000000000000000007000E00084
:100C20000000000000000000000000630C600000F5
:100C300000000000000000000000470E200000003F
:100C40000000000000000000004F0F200000000026
:100C500000000000000000005F0FA0000000000086
:100C6000000000000000005E07A07F800000000080
:100C7000000000410400406020FFC00000000000B0
:100C8000000020820040F020FFC0000000000000B3
:100C90000020820040F020FFC000000000000000A3
:100CA0004104004060207F800000000000000082BE
:100CB00008005E07A07F8000000000000001041013
:100CC000005F0FA0FFC00000000000000104100042
:100CD0004F0F20FFC0000000000000008208004706
:100CE0000E20FFC000000000000000410400630C63
:100CF000603F00000000000000000000007000E005
:100D00001E0000000000000001FFFF807FFFE00CDC
:100D10000000000000000001FFFF80000000507292
:100D2000696E7420706175736564004D31323500F1
:100D30005072696E742061626F727465640047312D
:100D40002045333020463630300047323820582096
:100D50005900473120452D323020463430303000A4
:100D600047393100004D32340054756E65005061D2
:100D7000757365207072696E7400436F6E74726F64
:100D80006C00506C6174650046696C616D656E74D1
:100D90000053746F70207072696E740054756E65C4
:100DA000004E6F2053442063617264005072696E7C
:100DB000742066726F6D20534400526573756D65C3
:100DC000207072696E740053746F70207072696E57
:100DD00074005061757365207072696E74004261B1
:100DE000636B0057726974696E6720746F2066695F
:100DF0006C653A20006F70656E206661696C656491
:100E00002C2046696C653A20006F70656E20666123
:100E1000696C65642C2046696C653A200046696CF3
:100E2000652073656C65637465640A002053697A94
:100E3000653A200046696C65206F70656E65643A9E
:100E400020006F70656E206661696C65642C2046B9
:100E5000696C653A20002066696C653A2000646F11
:100E6000696E67006672657368004E6F7720004593
:100E70004E4420535542524F5554494E450A002284
:100E800020706F73002220706172656E743A2200C8
:100E9000535542524F5554494E452043414C4C20E6
:100EA0007461726765743A22004B494C4C45442E7C
:100EB0002000747279696E6720746F2063616C6CB6
:100EC000207375622D67636F64652066696C657356
:100ED000207769746820746F6F206D616E79206C63
:100EE0006576656C732E204D4158206C6576656C77
:100EF0002069733A0043616E6E6F74206F70656E87
:100F000020737562646972200053442063617264C7
:100F1000206F6B0A006F70656E526F6F7420666190
:100F2000696C65640A00766F6C756D652E696E6913
:100F300074206661696C65640A004572726F723A6A
:100F400000534420696E6974206661696C0A004729
:100F50003238205820590050726F62696E67000065
:100F600000627574746F6E20746F20636F6E7469A5
:100F70006E7565006D616E75616C20616E642070C8
:100F800072657373207468650050696563652061DC
:100F9000732073686F776E20696E207468650050E7
:100FA0006C6163652043616C6962726174696F6E24
:100FB000004C6576656C696E6720446F6E65210034
:100FC0004173736973746564204265640000200096
:100FD000627574746F6E20746F20636F6E74696EC7
:100FE000756500747765657A657273202620707266
:100FF0006573732074686500436C65616E20746866
:1010000065204E6F7A7A6C652077697468002020BD
:1010100000204341524546554C20484F5421200062
:10102000436172642072656D6F766564004361721E
:101030006420696E73657274656400473238005AC3
:10104000004D363030204230004368616E676520C5
:1010500066696C616D656E7400466C6F7700466CF6
:101060006F7700466C6F770046616E207370656520
:10107000640046616E2073706565640046616E2091
:101080007370656564004265640042656400426592
:1010900064004E6F7A7A6C65004E6F7A7A6C6500E8
:1010A0004E6F7A7A6C6500537065656400537065A5
:1010B0006564005370656564004D61696E00546538
:1010C0006D70657261747572650044697361626CFC
:1010D00065207374657070657273004D383400411B
:1010E00075746F20686F6D65004732380042616328
:1010F0006B00436F6F6C646F776E0046616E207398
:10110000706565640046616E2073706565640046B5
:10111000616E2073706565640042656400426564B9
:1011200000426564004E6F7A7A6C65004E6F7A7A81
:101130006C65004E6F7A7A6C65004261636B0043A8
:10114000616E6E6F7420656E746572207375626473
:1011500069723A2000022E2E004261636B0020204B
:101160004E6F7A7A6C653A200020004261636B0012
:101170004D696E696D756D2054656D7020697320C1
:101180003137302E0048656174696E672066616989
:101190006C65640001021020200808102040102017
:1011A000408002010201080402010102040810202B
:1011B0004080804020100804020180040201804029
:1011C0002010080402010804020101020408102092
:1011D0004080010204081020408000002200250009
:1011E00028002B002E003100340002010000050110
:1011F00008010B0105050505070508080808020296
:1012000002020A0A080804040404010101010101A0
:1012100001010303030303030303040707070C0C83
:101220000C0C0C0C0C0C020202020606060606064A
:1012300006060B0B0B0B0B0B0B0B0250726F62694C
:101240006E67206661696C65640A0050726F62693E
:101250006E67206661696C656400205A3A20002040
:10126000593A200042656420583A2000486F6D6565
:1012700020257325732573206669727374002066B8
:10128000697273740A005A0059005800486F6D65FE
:1012900020004D36303020486F74656E6420746FC6
:1012A0006F20636F6C6420746F206368616E676584
:1012B0002066696C616D656E740A0047323820588B
:1012C00020590000000000000000000000000000A5
:1012D000000000000000000000000000000000000E
:1012E00000000000000000000000000000000000FE
:1012F00000000000000000000000000000000000EE
:1013000000000000000000000000000000000000DD
:1013100000000000000000000000000000000000CD
:101320000000000000000000007FFFFE001F000022
:101330000001E0FFC078007FFFFE00FFE0701E07A5
:10134000FCFFE078007FFFFE03FFF0703E0FFEFF22
:10135000F078007FFFFE07F1F0707C1F3EE0F87828
:101360000078001E0F803070781E0CE078780078CE
:10137000001E0F001070F01C00E078780078001E4E
:101380001E000071E01C00E078780078001E1E004E
:101390000073C01E00E070780078001E3C000077EB
:1013A000801F00E0F0780078001E3C00007F000FF6
:1013B000C0FFE0780078001E3C00007F0007F0FFCF
:1013C000E0780078001E3C00007F0003F8FFF8780A
:1013D0000078001E3C0000778000FEE078780078FE
:1013E000001E3C000073C0003EE03C780078001E08
:1013F0003C000071E0001FE03C780078001E1C00FB
:101400000071F0000FE03C780078001E1E000070B4
:10141000F0000FE03C780078001E1F001070781874
:101420000FE07C780078001E0F8030703C3C0FFF8E
:10143000F87FF87FFFFE07F1F0703E1F3EFFF07F60
:10144000F87FFFFE03FFF0701F1FFEFFE07FF87FB5
:10145000FFFE01FFE0700F0FFC000000007FFFFEA9
:10146000003F80000003F0000000000000000000CA
:10147000000000000000000000000000000000006C
:10148000000000000000000000000000000000005C
:10149000000000000000000000000000000000004C
:1014A000000000000000000000000000000000003C
:1014B000000000000000000000000000000000002C
:1014C000000000000000000000000000000000001C
:1014D000000000000000002020506C616E6E6572FC
:1014E00042756666657242797465733A20002046DB
:1014F000726565204D656D6F72793A2000436F6D9E
:1015000070696C65643A204F637420313120323049
:1015100031380A00207C20417574686F723A2028A7
:10152000426C6F636B732C204F6E65204D4B3220E5
:10153000312E312E31290A00323031372D31322D02
:1015400032352031323A303000204C6173742055EE
:101550007064617465643A2000312E312E380A00BF
:101560004D61726C696E0020536F667477617265AD
:101570002052657365740A00205761746368646F54
:10158000672052657365740A002042726F776E207F
:101590006F75742052657365740A00204578746510
:1015A000726E616C2052657365740A00506F7765C6
:1015B0007255700A0073746172740A006572726FFA
:1015C000722077726974696E6720746F2066696C27
:1015D000650A00456E6473746F707320256320255F
:1015E0006320256320256300205A3A0020593A00E1
:1015F00020583A00656E6473746F70732068697464
:101600003A2000446F6E6520736176696E672066CC
:10161000696C652E0A004D32390020746F6F206CA2
:101620006F6E6720657874727573696F6E20707263
:101630006576656E7465640A0020636F6C6420656E
:101640007874727573696F6E2070726576656E74EA
:1016500065640A0045787472756465206D6F726503
:1016600000526573756D65207072696E7400524525
:1016700053554D45204F5054494F4E533A00426CFC
:101680006F636B73204F6E652072656164792E0005
:1016900000004C6F6164204E65772046696C616D77
:1016A000656E740053746F7000524553554D45205C
:1016B0004F5054494F4E533A0020204E6F7A7A6C67
:1016C000653A20006368616E6765006F6620746824
:1016D000652066696C616D656E7400576169742080
:1016E000666F722073746172740046494C414D45B7
:1016F0004E54204348414E47450020204E6F7A7A91
:101700006C653A2000200066696C616D656E74201E
:10171000756E6C6F6164005761697420666F72004A
:1017200046494C414D454E54204348414E474500A3
:1017300020204E6F7A7A6C653A20002000506C654C
:1017400061736520776169742E2E2E00486561747F
:10175000696E67206E6F7A7A6C650048454154491E
:101760004E47204E4F5A5A4C450020204E6F7A7AF1
:101770006C653A2000200068656174206E6F7A7A8B
:101780006C652E00507265737320627574746F6E91
:1017900020746F0046494C414D454E54204348410A
:1017A0004E47450020204E6F7A7A6C653A200074CF
:1017B0006F20636F6E74696E75652E2E2E00616EDC
:1017C0006420707265737320627574746F6E004963
:1017D0006E736572742066696C616D656E74004627
:1017E000494C414D454E54204348414E4745002009
:1017F000204E6F7A7A6C653A2000200066696C6131
:101800006D656E74206C6F61640057616974206649
:101810006F720046494C414D454E54204348414E5D
:1018200047450020204E6F7A7A6C653A2000616E41
:1018300064207072657373207468652062757474B7
:101840006F6E0066696C616D656E74206578747288
:10185000756465005761697420666F720046494C73
:10186000414D454E54204348414E474500746F203A
:10187000726573756D65005761697420666F7220BB
:101880007072696E740046494C414D454E54204378
:1018900048414E4745004E65787420506F696E741C
:1018A00000746F2062652061646A757374656400FA
:1018B000756E74696C207468657265206973206E3A
:1018C0006F20706F696E74206E656564696E670065
:1018D000546869732066756E6374696F6E207769EA
:1018E0006C6C20726570656174004C6576656C691E
:1018F0006E670041737369737465642042656400A8
:101900004C6576656C696E670041737369737465C5
:101910006420426564000024F4D43050C38E20C299
:10192000A24017828B7011127A910D816CD90AA88E
:1019300061E108C7586607615143061E4B5D05C14A
:1019400045A7041A411104093D9803713931034038
:1019500036DB0265339102D4305402802E1D0263BF
:101960002CEE01752AC501B028A001102781018F36
:101970002564012B244B01E0223401AC211F018D91
:10198000200D01801FFC00841EED00971DDF00B8B4
:101990001CD200E61BC600201BBC00641AB200B2B9
:1019A00019A8000A19A0006A189900D117910040DF
:1019B000178B00B516840031167E00B31579003AF6
:1019C000157300C7146F0058146A00EE1366008880
:1019D00013630025135E00C7125B006C12570015DD
:1019E000125400C111510070114F0021114B00D64B
:1019F0001049008D1047004610440002104200C0FC
:101A00000F4000800F3E00420F3C00060F3B00CB12
:101A10000E3800930E37005C0E3500270E3400F3AD
:101A20000D3200C10D3100900D3000600D2E0032DE
:101A30000D2D00050D2C00D90C2B00AE0C290085B6
:101A40000C29005C0C2700350C27000E0C2600E842
:101A50000B2400C40B2400A00B23007D0B23005A91
:101A60000B2100390B2100180B2000F80A1F00D9A8
:101A70000A1E00BB0A1E009D0A1D00800A1D00638D
:101A80000A1C00470A1B002C0A1B00110A1A00F747
:101A9000091A00DD091900C4091900AB09190092DF
:101AA0000917007B091800630917004C0916003656
:101AB000091600200916000A091500F5081500E0AE
:101AC000081400CC081400B8081400A408140090EE
:101AD0000813007D0812006B081300580812004616
:101AE0000812003408110023081100120811000127
:101AF000081100F0071000E0071000D0071000C028
:101B0000071000B0070F00A107100091070E008317
:101B1000070F0074070F0065070E0057070E0049F6
:101B2000070E003B070D002E070E0020070D0013C7
:101B3000070D0006070D00F9060C00ED060D00E08C
:101B4000060C00D4060C00C8060C00BC060C00B045
:101B5000060C00A4060B0099060C008D060B0082F3
:101B6000060B0077060B006C060B0061060A005797
:101B7000060B004C060A0042060A0038060A002E30
:101B8000060A0024060A001A060A001006090007C1
:101B9000060A00FD050900F4050900EB050900E24D
:101BA000050900D9050900D0050900C7050900BECF
:101BB000050900B5050800AD050800A50509009C4C
:101BC000050800940508008C050800840508007CC1
:101BD000050800740508006C050700650508005D30
:101BE000050700560508004E050700470507004099
:101BF00005080038050700310507002A05070023FE
:101C00000507001C050600160507000F050700085C
:101C100005060002050700FB040600F5040700EEB8
:101C2000040600E8040600E2040700DB040600D511
:101C3000040600CF040600C9040600C3040600BD64
:101C4000040600B7040600B1040500AC040600A6B3
:101C5000040600A00405009B0406009504050090FE
:101C60000406008A04050085040500800406007A45
:101C700004050075040500700405006B040500668A
:101C8000040500610405005C0405005704050052CA
:101C90000405004D04050048040500430405003E0A
:101CA0000404003A04050035040500300404002C47
:101CB00004050027040400230405001E0404001A80
:101CC00004040016040500110404000D04040009B6
:101CD0000405000404040000040400FC030400F8EC
:101CE000030400F4030400F0030400EC030400E820
:101CF000030400E4030400E0030400DC030400D850
:101D0000030400D4030400D0030400CC030400C87F
:101D1000030300C503030024F404D9201BC40C5C96
:101D20000E9804C4095F0265077101F405F900FB10
:101D300004B30048048700C1036900580355000339
:101D4000034500BE023A008402310053022A0029F2
:101D500002250004022000E4011C00C8011900AFA4
:101D60000117009801140084011300710110006133
:101D700001100051010E0043010D0036010B002B34
:101D8000010B0020010B00150109000C01090003E3
:101D9000010800FB000800F3000800EB000700E466
:101DA000000600DE000600D8000600D2000600CCC7
:101DB000000500C7000500C2000500BD000400B911
:101DC000000400B5000400B1000400AD000400A947
:101DD000000400A5000300A20003009F0004009B74
:101DE0000003009800030095000200930003009098
:101DF0000003008D0002008B0003008800020086B3
:101E000000020084000300810002007F0002007DC8
:101E10000002007B000200790002007700010076DA
:101E20000002007400020072000100710002006FE5
:101E30000002006D0001006C0002006A00010069F0
:101E400000020067000100660001006500010064F7
:101E50000002006200010061000100600001005FFB
:101E60000002005D0001005C0001005B0001005AFF
:101E70000001005900010058000100570001005600
:101E80000001005500010054000100530000005300
:101E90000001005200010051000100500001004FFC
:101EA0000001004E0000004E0001004D0001004CFA
:101EB0000001004B0000004B0001004A00010049F6
:101EC00000010048000000480001004700010046F2
:101ED00000000046000100450000004500010044EC
:101EE00000010043000000430001004200000042E6
:101EF0000001004100000041000100400001003FDE
:101F00000000003F0001003E0000003E0001003DD7
:101F10000000003D0001003C0000003C0000003CCF
:101F20000001003B0000003B0001003A0000003AC5
:101F300000010039000000390001003800000038BD
:101F400000000038000100370000003700010036B3
:101F500000000036000000360001003500000035AA
:101F6000000000350001003400000034000000349F
:101F70000001003300000033000000330001003294
:101F8000000000320000003200010031000000318A
:101F9000000000310001003000000030000000307F
:101FA0000001002F0000002F0000002F0000002F74
:101FB0000001002E0000002E0000002E0001002D68
:101FC0000000002D0000002D0000002D0001002C5D
:101FD0000000002C0000002C0000002C0001002B51
:101FE0000000002B0000002B0000002B0001002A45
:101FF0000000002A0000002A0000002A0001002939
:10200000000000290000002900000029000000292C
:10201000000100280000002800000028000000281F
:102020000000002800010027000000270000002712
:102030000000002700000027000100260000002605
:1020400000000026000000260000002600010025F8
:1020500000000025000000250000002500000025EC
:1020600000000025000100240000002400000024DE
:1020700000000024000000240001002300000023D1
:1020800000000023000000230000002300000023C4
:1020900000000023000100220000002200000022B6
:1020A00000000022000000220000002200010021A8
:1020B000000000210000002100000021000000219C
:1020C000000000210000002100010020000000208D
:1020D0000000002000000020000000200000002080
:1020E00000000020000000200001001F0000001F71
:1020F0000000001F0000001F0000001F0000001F64
:102100000000001F0001001E0000001E0000001E55
:102110000000001E0000004D383420582059205A7D
:10212000204500526573656E643A20006F6B002095
:10213000746F6F206C6F6E67206578747275736949
:102140006F6E2070726576656E7465640A00206338
:102150006F6C6420657874727573696F6E2070722D
:102160006576656E7465640A00627573793A2070ED
:10217000617573656420666F7220696E7075740A8C
:1021800000627573793A2070617573656420666FBB
:102190007220757365720A00627573793A207072E5
:1021A0006F63657373696E670A004B494C4C454415
:1021B0002E20004B494C4C2063617573656420628E
:1021C00079204B494C4C20627574746F6E2F706986
:1021D0006E0A004B494C4C45442E20004B494C4C58
:1021E0002063617573656420627920746F6F206D60
:1021F00075636820696E6163746976652074696DC2
:1022000065202D2063757272656E7420636F6D6D2D
:10221000616E643A20004D363030004261636B00DD
:102220004E6F004733370059657300473336004916
:102230007320746865206E6F7A7A6C6520636C65B4
:10224000616E3F004D3731300020204E6F7A7A6C3E
:10225000653A2000506C6561736520776169742E62
:102260002E2E0048656174696E67206E6F7A7A6CF5
:1022700065004C4F41442046494C414D454E540069
:102280004261636B004D3731310020204E6F7A7A06
:102290006C653A2000506C656173652077616974E4
:1022A0002E2E2E0048656174696E67206E6F7A7AF3
:1022B0006C6500554E4C4F41442046494C414D45BC
:1022C0004E54004261636B00473334002020426566
:1022D000643A200048656174696E67206265642E07
:1022E0002E2E004C6576656C696E670041737369CC
:1022F0007374656420426564004261636B004261EF
:10230000636B004142532F504554472F4E594C4F59
:102310004E2F4F5448455200504C410053656C6558
:102320006374206D6174657269616C3A0042616327
:102330006B004142532F504554472F4E594C4F4E3E
:102340002F4F5448455200504C410053656C656313
:1023500074206D6174657269616C3A00556E6C6FC2
:102360006164004C6F6164004C6F616420284C6FA5
:10237000616465642129004261636B004861726495
:10238000636F6465642044656661756C7420536591
:102390007474696E6773204C6F616465640A00C46D
:1023A000090000C4090000640000001027000000BC
:1023B000007A4300007A43000020410000A0420060
:1023C00000A0420000A0420000C8430000C8422014
:1023D000204D3835312044005A2D50726F62652DE2
:1023E00050726F6265204F6666736574286D6D2943
:1023F0003A0A0020204D383531205A005A2D5072AB
:102400006F6265204F666673657420286D6D293A8A
:102410000A0020204D3235302043004C43442043F5
:102420006F6E74726173743A0A0020440020490090
:1024300020204D333034205000204400204900201B
:10244000204D33303120500050494420736574745E
:10245000696E67733A0A0020460020420020480057
:1024600020204D3134352053004D6174657269610F
:102470006C2068656174757020706172616D65743F
:102480006572733A0A00205A0020204D3432302001
:1024900053004175746F20426564204C6576656C0D
:1024A000696E673A0A00205A0020590020204D32F8
:1024B0003036205800486F6D65206F66667365740E
:1024C0003A0A00204500205A0020590020580020D8
:1024D000420020540020204D32303520530041640A
:1024E00076616E6365643A20533C6D696E5F666524
:1024F0006564726174653E20543C6D696E5F7472F0
:102500006176656C5F66656564726174653E2042E4
:102510003C6D696E5F7365676D656E745F74696D40
:10252000655F75733E20583C6D61785F78795F6AAE
:1025300065726B3E205A3C6D61785F7A5F6A6572A6
:102540006B3E20453C6D61785F655F6A65726B3EEE
:102550000A0020540020520020204D3230342050F8
:1025600000416363656C65726174696F6E202875E4
:102570006E6974732F7332293A20503C7072696E01
:10258000745F616363656C3E20523C726574726176
:1025900063745F616363656C3E20543C7472617662
:1025A000656C5F616363656C3E0A00204500205ADC
:1025B0000020590020204D3230312058004D6178E4
:1025C000696D756D20416363656C65726174696FD7
:1025D0006E2028756E6974732F7332293A0A0020B1
:1025E0004500205A0020590020204D323033205819
:1025F000004D6178696D756D206665656472617402
:1026000065732028756E6974732F73293A0A002048
:102610004500205A0020590020204D393220580012
:1026200053746570732070657220756E69743A0A10
:102630000020204D3230302044300A0020204D321E
:1026400030302044002044697361626C65640A0084
:1026500046696C616D656E742073657474696E672C
:10266000733A0020204D3134392043203B20556EF1
:1026700069747320696E2043656C736975730A0011
:102680002020473231202020203B20556E69747372
:1026900020696E206D6D0A0020496E76616C696458
:1026A0002065787472756465722000000060C10056
:1026B00000000000000000000056430000524300EC
:1026C00000574342696C696E656172204C6576659E
:1026D0006C696E6720477269643A0A0047322F4777
:1026E000332062616420706172616D65746572731C
:1026F0000A00473337004733340047333900467503
:102700006C6C2043616C6962726174696F6E004326
:10271000616C6962726174652070726F62657300CA
:10272000473339004E6F7A7A6C652041646A75735D
:10273000746D656E74004C6576656C20506C6174C8
:1027400065004261636B00FFE0FFD11000FFFEFFF8
:10275000D0FFE0FFC1FFD1E240A0C8A6A22FF80041
:10276000238127AC00AFFF64A5FF64FF64A4FFD002
:10277000FFFE00060900FE0701920321207FFF07EC
:10278000FF07FF00000006000001070706020080A7
:10279000808080800080030202060105A0A005075A
:1027A000070600005050F850F85050050707060083
:1027B000002078A07028F020050707060000C0C898
:1027C00010204098180507070600006090A040A858
:1027D0009068020303060104C04080030707060156
:1027E00000204080808040200307070601008040D1
:1027F000202020408005050506000120A870A820A3
:102800000505050600012020F8202002030306022A
:10281000FFC04080050101060003F8020202060223
:1028200000C0C0050505060001081020408005070E
:1028300007060000708888888888700307070601EB
:102840000040C040404040E0050707060000708897
:1028500008708080F8050707060000F810201008AF
:1028600008F005070706000010305090F81010051A
:102870000707060000F880F00808887005070706BB
:102880000000708080F0888870050707060000F857
:102890000810202020200507070600007088887097
:1028A0008888700507070600007088887808087017
:1028B000020505060200C0C000C0C00206060602EE
:1028C000FFC0C000C0408004070706000010204081
:1028D00080402010050303060002F800F8040707F3
:1028E00006010080402010204080050707060000F8
:1028F000708808102000200507070600007088086F
:1029000068A8A870050707060000708888F88888FE
:1029100088050707060000F08888F08888F005071A
:102920000706000070888080808870050707060011
:1029300000F08888888888F0050707060000F8807E
:1029400080F08080F8050707060000F88080F0809E
:102950008080050707060000708880B888887005A9
:102960000707060000888888F88888880107070616
:102970000200808080808080800507070600003884
:102980001010101090600507070600008890A0C086
:10299000A09088050707060000808080808080F86E
:1029A00005070706000088D8A888888888050707D3
:1029B0000600008888C8A8988888050707060000D0
:1029C00070888888888870050707060000F0888866
:1029D000F080808005070706000070888888A8902E
:1029E00068050707060000F08888F0A090880507B2
:1029F00007060000788080700808F00507070600C9
:102A000000F82020202020200507070600008888E5
:102A10008888888870050707060000888888888865
:102A200050200507070600008888888888A8500578
:102A30000707060000888850205088880507070689
:102A4000000088888850202020050707060000F82D
:102A50000810204080F8030707060100E08080800E
:102A60008080E0050505060001804020100803076E
:102A700007060100E02020202020E00503030600D7
:102A800004205088050101060000F8020202060237
:102A90000580400505050600007008788878050760
:102AA000070600008080B0C88888F005050506008C
:102AB0000070808088700507070600000808689885
:102AC0008888780505050600007088F8807005077D
:102AD000070600003048E04040404005060606007A
:102AE000FF7088887808700507070600008080B0AE
:102AF000C8888888010707060200800080808080DF
:102B0000800308080601FF200020202020A04004A8
:102B10000707060000808090A0C0A090030707066A
:102B20000100C04040404040E0050505060000D0DF
:102B3000A8A8A8A8050505060000B0C888888805CB
:102B4000050506000070888888700506060600FFE7
:102B5000F08888F080800506060600FF788888786F
:102B60000808050505060000B0C880808005050539
:102B700006000070807008F004070706000040405F
:102B8000E0404040300505050600008888889868C8
:102B90000505050600008888885020050505060003
:102BA000008888A8A8500505050600008850205018
:102BB000880506060600FF888888780870050505E0
:102BC000060000F8102040F8030707060100204027
:102BD00040804040200107070602008080808080FE
:102BE00080800307070601008040402040408005A8
:102BF000020206000268900000000600007C3C3ED5
:102C00005E2B3D3F2F5B5D3B2C2A225C003A00434C
:102C100061703A00205A00205900580020204D6170
:102C2000783A2000205A00205900580020204D6991
:102C30006E3A20004F6E20004F666600536F667438
:102C400020656E6473746F70733A20004B642000CB
:102C500023646566696E65202044454641554C54A1
:102C60005F004B69200023646566696E652020441F
:102C7000454641554C545F004B7020002364656607
:102C8000696E65202044454641554C545F005049CB
:102C900044204175746F74756E652066696E697342
:102CA000686564212050757420746865206C6173B8
:102CB00074204B702C204B6920616E64204B642083
:102CC000636F6E7374616E74732066726F6D2062D1
:102CD000656C6F7720696E746F20436F6E666967ED
:102CE00075726174696F6E2E680A00504944204104
:102CF00075746F74756E65206661696C65642120FA
:102D000074696D656F75740A00544845524D414CA5
:102D10002052554E4157415900546865726D616C9F
:102D20002052756E617761790048656174696E67DC
:102D3000206661696C65640048656174696E67202E
:102D40006661696C656400504944204175746F7414
:102D5000756E65206661696C6564212054656D70CF
:102D60006572617475726520746F6F206869676839
:102D70000A00204B643A2000204B693A2000204B87
:102D8000703A20000A20436C6173736963205049D4
:102D900044200A002054753A2000204B753A200048
:102DA000206D61783A2000206D696E3A2000206421
:102DB0003A200020626961733A20004F66660A007B
:102DC00046616465204865696768742000426564EF
:102DD000204C6576656C696E6720004661696C659C
:102DE0006420746F20656E61626C652042656420AA
:102DF0004C6576656C696E670A00290A0020627965
:102E00007465733B20637263200053657474696E4C
:102E100067732053746F72656420280020286361F3
:102E20006C63756C6174656429210A0020213D2062
:102E300000454550524F4D20435243206D69736DFC
:102E400061746368202D202873746F726564292073
:102E500000290A002062797465733B206372632045
:102E6000002073746F7265642073657474696E6793
:102E70007320726574726965766564202800204D40
:102E800061726C696E3D563437290A0028454550F9
:102E9000524F4D3D00454550524F4D20766572735F
:102EA000696F6E206D69736D617463682000466997
:102EB0006C652064656C657465643A0044656C6596
:102EC00074696F6E206661696C65642C2046696C5C
:102ED000653A20006F70656E206661696C65642CD0
:102EE0002046696C653A20006D0046696C616D652D
:102EF0006E7420757365643A200053746174733A7C
:102F000020002C204C6F6E67657374206A6F623AE4
:102F10002000546F74616C2074696D653A20005311
:102F2000746174733A20002C204661696C65643AC0
:102F300020002C2046696E69736865643A20005051
:102F400072696E74733A200053746174733A20008E
:102F500048656174696E6720646F6E652E00205746
:102F60003A0045256920257300426C6F636B73201E
:102F70004F6E652072656164792E0042656420643D
:102F80006F6E652E0020573A0042656420486561E7
:102F900074696E672E00205A3A0020423A0020439E
:102FA0006F756E7420413A0020453A00205A3A006D
:102FB00020593A00583A00473238205A20466F725A
:102FC00062696464656E0A00473238205A20466F91
:102FD0007262696464656E0020706F736974696FF2
:102FE0006E206F7574206F662072616E67652E0AA1
:102FF000003F50726F62652000202844525952559C
:103000004E2900473239204175746F204265642093
:103010004C6576656C696E670028422961636B00B8
:10302000284629726F6E74002852296967687400F7
:10303000284C29656674003F2856296572626F73B3
:1030400065206C6576656C20697320696D706C61B4
:10305000757369626C652028302D34292E0A004270
:103060006164205A2076616C75650A004E6F20629B
:10307000696C696E65617220677269640A00506CE0
:1030800065617365207265736574005052494E54D2
:1030900045522048414C544544005072696E746555
:1030A000722068616C7465642E206B696C6C2829D1
:1030B0002063616C6C6564210A00656E71756575CD
:1030C00065696E67202200000060C10000000000FA
:1030D00000000000004842000048420000C04000DC
:1030E0000000005761726E696E673A20486F6D6923
:1030F0006E672042756D702044697669736F722027
:103100003C20310A000202040000A0400000A04060
:103110000000004000006443000052430000574399
:10312000FFFFFF70012C0190012701B0012201C0B7
:10313000011D01F00118011002130130020E01609F
:1031400002090190020401C002FF000003FA0040DE
:1031500003F5008003F000D003EB002004E60070CC
:1031600004E100E004DC004005D700C005D20040C7
:1031700006CD00D006C8008007C3003008BE00F0AE
:1031800008B900C009B400B00AAF00B00BAA00D063
:103190000CA500000EA000500F9B00C01096005020
:1031A00012910000148C00C0158700B0178200B087
:1031B000197D00D01B7800001E730040206E009027
:1031C000226900F024640040275F0090295A00E043
:1031D0002B5500102E500020304B0010324600E0DE
:1031E00033410090353C001037370070383200A072
:1031F000392D00B03A2800A03B2300603C1E00108F
:103200003D1900903D1400103E0F00703E0A00C0B2
:103210003E0500003F0000403FFBFF803FF6FFC03F
:103220003FF1FF544845524D414C2052554E4157B5
:10323000415900546865726D616C2052756E6177FA
:103240006179004572723A204D494E54454D5020E7
:10325000424544004572723A204D494E54454D5006
:10326000004D494E54454D50207472696767657230
:103270006564004572723A204D415854454D5020C6
:10328000424544004572723A204D415854454D50D4
:10329000004D415854454D502074726967676572FE
:1032A000656400202F002042403A0020403A000090
:1032B000060900FE000000000001090008FE0000F1
:1032C00005080806000040F0C888889878100508AE
:1032D00008060000C0F88888888888F80505050673
:1032E00000012030F830200508080600002070F8A2
:1032F00020202020E00509090600FF2070A8A8B8BA
:10330000888870200509090600FFE080C0B0A82861
:103310003028280509090600FFF8A88888888888C9
:10332000A8F8050A0A0600FE205050505088A8A8A8
:10333000887003030306000340A0406175746F2585
:10334000692E67006563686F3A004D3234004D3274
:1033500033202573002569730025696D2025697365
:10336000002569682025696D202569730025696439
:10337000202569682025696D2025697300256979F4
:1033800020256964202569682025696D20256973D9
:103390000053544F505045442E20005072696E74B3
:1033A00065722073746F7070656420647565207435
:1033B0006F206572726F72732E2046697820746870
:1033C00065206572726F7220616E6420757365206E
:1033D0004D39393920746F20726573746172742E9F
:1033E000202854656D70657261747572652069730B
:1033F0002072657365742E20536574206974206192
:10340000667465722072657374617274696E67297F
:103410000A004E6F20436865636B73756D20776992
:103420007468206C696E65206E756D6265722C2003
:103430004C617374204C696E653A20006368656363
:103440006B73756D206D69736D617463682C204CAE
:10345000617374204C696E653A20004C696E65207A
:103460004E756D626572206973206E6F74204C61B9
:103470007374204C696E65204E756D6265722B31D8
:103480002C204C617374204C696E653A20004D31DC
:103490003130004D33310053442072656164206542
:1034A00072726F720A00446F6E65207072696E747A
:1034B000696E672066696C650A00000021002400BF
:1034C00027002A002D003000330001010000040114
:1034D00007010A01000020002300260029002C001B
:1034E0002F00320000010000030106010901000065
:1034F0000A0B02090C0D0E0807030401000000006E
:1035000000000000000000000000000000000000BB
:103510000000000000000000000012111000000078
:10352000000000000000000000000000000000009B
:10353000000000004572726F722077726974696EC4
:103540006720746F20454550524F4D210A00626537
:10355000640A002C2073797374656D2073746F7026
:1035600070656421204865617465725F49443A2042
:103570000048656174696E67206661696C65640006
:1035800048656174696E67206661696C65640048AE
:10359000656174696E67206661696C656400486581
:1035A0006174696E67206661696C65640000CF00B4
:1035B000D10011241FBECFEFD1E2DEBFCDBF00E0AE
:1035C0000CBF14E0A0E0B2E0E2EDFAE302E00BBFD2
:1035D00002C007900D92A234B107D9F725E1A2E409
:1035E000B4E001C01D92A43FB207E1F71AE1C8EDB3
:1035F000DAE100E006C021970109802FFE010F9457
:10360000D61CC73DD10780E00807A9F70F94D8075B
:103610000D94581D0C9400002F923F924F925F9290
:103620006F927F928F929F92AF92BF92CF92DF92D2
:10363000EF92FF920F931F93CF93DF93CDB7DEB737
:10364000A9970FB6F894DEBF0FBECDBF81E090E022
:103650009093540E8093530E8091ED158D3409F4A0
:103660001CC4843511F40C94A62E873421F0E4E4B4
:10367000F3E30C94E82E2091EB153091EC152E31EC
:10368000310509F413C14CF52430310509F496C015
:103690004CF437FF02C00C94002F223031050CF09F
:1036A00084C07CC02B31310509F4CFC04CF42A31E1
:1036B000310511F00C94002F0E942B330C94002F35
:1036C0002C31310509F4EDC02D31310511F00C9488
:1036D000002F0E949ED90C94002F2732310509F447
:1036E000C8C194F52332310509F468C14CF4223283
:1036F000310511F00C94002F0E94614E0C94002FA4
:103700002432310509F497C12532310511F00C94AA
:10371000002F11E01093D60D82ED90E00E9420B8AA
:103720000E94874C1093D60D40E050E0BA0188E526
:1037300092E50E94253F83E090E09093540E8093A1
:10374000530E109308057BC12A35310509F458C280
:1037500034F42A32310509F4C9C20C94002F2B35F8
:10376000310509F451C22C35310511F00C94002FAC
:103770000F9462002EEA32E03FA32EA397E2E92ED7
:103780009EE0F92E22EAC22E20E1D22E3BE4232E27
:1037900035E0332E00E010E018A676C28091A50235
:1037A00081110C94072F0C94002F81E022303105F9
:1037B00009F080E00E94B3A80C94002F80E50E94DD
:1037C000CD31882329F00E9480EE6B017C0103C07B
:1037D000C12CD12C760183E50E94CD31882361F084
:1037E0000E94673120E030E04AE754E40F94CF159F
:1037F0000F94301B6B017C010F94620080915A0280
:10380000811105C060E087E092E00E949B550E9414
:1038100083EF80914D0D90914E0DA0914F0DB09181
:10382000500DC80ED91EEA1EFB1E0E94F9F5DC01E0
:10383000CB018C199D09AE09BF09B7FD02C00C94DC
:10384000002F80E00E942490F0CF0E94C16381117C
:103850000C94002F80E090E0A0E6B1EC89839A837D
:10386000AB83BC831D821E821F82188680E090E09D
:10387000A0EAB1E489879A87AB87BC8780E50E947C
:10388000CD31882319F00E94373101C060E068A370
:10389000BE016F5F7F4FCE0180960F94BA020C94E9
:1038A000002F80E00E9400DE0C94002FC090A21038
:1038B000D090A310E090A410F090A51020E030E08C
:1038C00048EC52E4C701B6010F940D1C181674F4AD
:1038D00088E50E94CD31811117C020E030E048EC2E
:1038E00051E4C701B6010F94E61910C088E50E94A3
:1038F000CD31811109C020E030E048EC51E4C7012E
:10390000B6010F94E71902C00E94673168A379A33A
:103910008AA39BA3C090A610D090A710E090A810F7
:10392000F090A91089E50E94CD31811109C020E0F5
:1039300030E040EB51E4C701B6010F94E71902C033
:103940000E9467316B017C0169837A838B839C833E
:1039500088A099A0AAA0BBA027EE3BEF4FE251E4BC
:10396000C501B4010F940D1C87FF02C00C94002FF9
:1039700022E430E048E453E4C501B4010F946A1531
:10398000181614F40C94002F24EF3DEF4FEA51E485
:10399000C701B6010F940D1C87FF02C00C94002FC5
:1039A00022E430E042E553E4C701B6010F946A1502
:1039B000181614F40C94002F0C940C2F0E94C64778
:1039C0008091970780935107109252070E94C2C0BE
:1039D0000E94CBE80E9490E710922D0510922C05D2
:1039E0001092040282E592E09093911080939010DF
:1039F0000E94DAED84E492E090939110809390100D
:103A00000E94DAED8CE392E09093911080939010F5
:103A10000E94DAED80E392E09093911080939010F1
:103A20000E94DAED6FEF82E292E00E949B550E94C5
:103A3000483F0C94002F0E94A54D0C94002F8091BC
:103A40000805882321F081E00E942490F8CF81E0CE
:103A500090E09093540E8093530E1092080580E0EE
:103A600090E00E9420B80E94A54D1092D60D0C94B3
:103A7000002F81E00E9400DE11E01093D60D40E09F
:103A800050E0BA018BE693E50E94253F0E94C8559D
:103A900083E090E09093540E8093530E10930805AA
:103AA00080910805882321F081E00E942490F8CFBE
:103AB0001092080581E090E09093540E8093530E8D
:103AC0008093D60D40E050E0BA0185EF93E50E9467
:103AD000253F85E40E94CD31882319F00E9458319A
:103AE00003C085E40E949E3140E050E06AE473E444
:103AF00049835A836B837C8340E050E066EC72E438
:103B000048A359A36AA37BA321E0482FBE016F5F9E
:103B10007F4FCE0180960E940A656B017C0185E48F
:103B20000E94CD31882319F00E94583103C085E4EA
:103B30000E949E3140E050E06AE473E449835A8376
:103B40006B837C8340E050E06AEC72E448A359A3A5
:103B50006AA37BA321E0482FBE016F5F7F4FCE0198
:103B600080960E940A654B015C010E94396862E3FD
:103B700070E080E090E00E94C1F585E20E94996DBE
:103B800080E797E199A388A382E390E09A838983F1
:103B9000BE01605E7F4FCE0101960E947DEA80915A
:103BA000F80D811108C086E592E090939110809302
:103BB00090100E94DAEDA5019401C701B6010F949F
:103BC000E6199B01AC016091470570914805809111
:103BD000490590914A050F94E71960934705709342
:103BE00048058093490590934A050E943CCD81E0A9
:103BF0008093D60D10925B050E94483F0C94002FD5
:103C000010924A040C94002F81E080934A040C9493
:103C1000002F0E9467314B015C0109A7033049F076
:103C2000F10120813181428153810F94E6194B01CA
:103C30005C01F6012081318142815381C501B401CB
:103C40000F94E6192B013C012DEB37E346E855EBC9
:103C50000F940D1C87FD22C02DEB37E346E855E39A
:103C6000C301B2010F946A151816C4F00F5F1F4FFD
:103C7000F4E0EF0EF11C24E0C20ED11C34E0230E60
:103C8000311C0430110551F1EEA1FFA18191FFA378
:103C9000EEA30E94CD31882349F3BBCFF9A5F330C1
:103CA00059F48092AE109092AF10A092B010B092E2
:103CB000B11021E028A7DACFA3019201F7016081BA
:103CC0007181828193810F94E719F7016083718379
:103CD00082839383C8010E9435B2C8CF48A54111A1
:103CE0000E94B0EA0E9471D10C94002F8091A5022D
:103CF000882311F40C94002F89E40E94CD31082F01
:103D0000882321F00E943731E62E01C0E12C8AE49D
:103D10000E94CD31182F882321F00E943731F62ED2
:103D200001C0F12C002319F081E08E1528F0112339
:103D300089F091E09F1570F4EEE5F2E084918F0137
:103D40000F5F1F4F882311F40C94002F0E948DEFFA
:103D5000F801F4CF0E94D9310023F1F02091230E15
:103D60003091240E4E2D4203B001439F700D11245B
:103D700080911F0E9091200E680F791F072E000C66
:103D8000880B990B0F94701560936D0570936E05F9
:103D900080936F05909370051123F1F02091250E0B
:103DA0003091260E4F2D4203B001439F700D112418
:103DB0008091210E9091220E680F791F072E000C22
:103DC000880B990B0F9470156093710570937205B1
:103DD000809373059093740580E50E94CD3188230C
:103DE00019F00E94583103C080E50E949E3188235B
:103DF00081F10023B1F020E030E048EC51E4609123
:103E00006D0570916E0580916F05909170050F940E
:103E1000E61960936D0570936E0580936F0590931E
:103E200070051123B1F020E030E040EB51E46091E7
:103E300071057091720580917305909174050F94CE
:103E4000E6196093710570937205809373059093E2
:103E5000740586E40E94CD318823D9F00E94673131
:103E60006B017C0120E030E0A9010F940D1C1816B5
:103E700084F420E030E040E752E4C701B6010F943B
:103E8000C31A6093140270931502809316029093E4
:103E900017020E9405940C94002F8091EB159091CD
:103EA000EC158837910511F40C946B270CF0D2C0F7
:103EB0008D34910509F448C40CF05AC0893191053C
:103EC00009F4FEC21CF58431910509F4DBC17CF4D0
:103ED0008131910509F463C22CF4029708F4D5C12D
:103EE0000C94002F429709F4FAC50C94002F8631E8
:103EF000910509F4AAC20CF4A4C28731910509F412
:103F0000AAC2489709F4BDC20C94002F8F319105C5
:103F100009F485C394F48B31910509F4EDC20CF4D6
:103F2000DDC28C31910509F424C34E9711F00C9435
:103F3000002F0E94E5D60C94002F8133910509F4DF
:103F4000DAC34CF48032910509F41DC38A9709F451
:103F500092C30C94002F8B34910509F4F1C38C3477
:103F6000910511F00C94002F0E94DA640C94002F3C
:103F70008A36910509F457C5B4F58435910509F4DD
:103F8000AEC5E4F48135910509F488C54CF48E344E
:103F9000910511F00C94002F0E94F5D30C94002F82
:103FA0008235910509F497C58335910511F00C947C
:103FB000002F81E0809349040C94002F8C359105EB
:103FC00009F4DFC534F48535910509F4BFC50C94B7
:103FD000002F8836910509F4BBC38936910509F491
:103FE000DAC40C94002F8137910509F489C4ACF42C
:103FF0008D36910509F413C534F48B36910509F417
:1040000037C50C94002F8E36910509F4F3C38F3613
:10401000910509F402C40C94002F8537910509F429
:1040200091C664F48237910509F434C6833791054B
:1040300011F00C94002FE3E3F4E032C686379105CB
:1040400009F489C68737910511F00C94002FEBE233
:10405000F5E0C3C68F32E1E09E0711F40C94A02B6B
:104060000CF07EC08C3C910511F40C946E280CF081
:104070003DC08B39910509F4ABC4D4F48D3791055B
:1040800009F408C55CF48937910511F00C94002FF0
:1040900010922711109226110C94002F8C38910544
:1040A00009F45BC48139910509F41BC70C94002FF6
:1040B000883C910509F48DC74CF48E3B910511F0B5
:1040C0000C94002F0E944ED20C94002F893C910535
:1040D00009F4CFC78B3C910511F00C94002F6EEAC8
:1040E000E62E62E0F62E04E717E0E9C78D3D910564
:1040F00011F40C947729A4F48E3C910511F40C94DE
:10410000432914F40C94D828833D910511F40C94A0
:1041100068298C3D910511F40C946B290C94002FA7
:104120008C3221E0920711F40C94E22964F4823E6F
:10413000910511F40C94BC298A3F910511F40C945B
:10414000142B0C94002F8D3241E0940711F40C9441
:10415000072A8E32914011F40C94502B0C94002FAE
:10416000853FF1E09F0711F40C94032D0CF043C040
:10417000823931E0930711F40C94A62BECF48336CA
:10418000E1E09E0709F47AC03CF48033914011F4D9
:104190000C949D2A0C94002F803931E0930711F480
:1041A0000C94A32B8139914011F00C94002F81E0E5
:1041B0000E9457B10C94002F853AE1E09E0711F45C
:1041C0000C94AA2B4CF4843A914011F00C94002FDB
:1041D0000E94CCBF0C94002F8C3A31E0930711F46D
:1041E0000C94302C843F914011F00C94002F0E94CD
:1041F0003CCD0C94002F803CE2E09E07D9F1C4F442
:10420000873F21E0920711F40C94092D14F40C94CB
:10421000062D883542E0940711F40C94AF2D8F3BA6
:10422000924011F00C94002F03E513E00C94B42D90
:104230008335F3E09F07D1F06CF4863C32E09307BE
:1042400011F40C94DF2D873C924011F40C94E22D74
:104250000C94002F803AE3E09E0709F4D3C1873E17
:10426000934011F40C94942E0C94002FE4E4F3E3A7
:104270000C94162D0FE313E00C94CB2DEAE3FFE032
:104280000C94812EE9ECF2E09CC0A090E915B0906E
:10429000EA1580E50E94CD31882359F00E9480EE16
:1042A0006B017C0111E0672B682B692B31F410E066
:1042B00004C010E0C12CD12C760183E50E94CD31E1
:1042C0008823F1F00E94673120E030E04AE754E4AF
:1042D0000F94CF150F94301B6B017C01111112C08C
:1042E000672B682B692B71F4A114B10459F0F50107
:1042F0008081882339F061E0C5010E94B85507C06C
:10430000112391F360E08EE992E00E949B5583E0D7
:1043100090E09093540E8093530E81E080930805B3
:104320000F9462000E9483EFC114D104E104F104F0
:10433000E1F080914D0D90914E0DA0914F0DB091F7
:10434000500DC80ED91EEA1EFB1E0E94F9F5DC01B5
:10435000CB018C199D09AE09BF09B7FF1CC0809124
:10436000080581110C94602F16C0809108058823E0
:1043700021F080E00E942490F8CF80914611909126
:10438000471160E0029719F48CE892E002C08DE7D3
:1043900092E00E949B55109208050C94002F60E05B
:1043A00081EB92E00E949B555F988A989FB7F894A2
:1043B000809108018E7F809308019FBF12980C9412
:1043C000002F84918F010F5F1F4F882321F00E94DF
:1043D0008DEFF801F6CF1092F7131092F61382EAE0
:1043E00091E10E94A9BA8BE1E2EAF1E1DE011596C2
:1043F00001900D928A95E1F78091A0119091A11101
:104400009C838B8388E193E09A83898340E050E02A
:10441000BE016F5F7F4F8CEC93E00E940348CE019A
:1044200001960E942CE2EAEBF2E084918F010F5F8B
:104430001F4F882311F40C94002F0E948DEFF80178
:10444000F4CF0E94EA450C94002F10927111109243
:1044500072110C94002FE091E915F091EA1580811A
:10446000882329F0803209F410823196F8CF40E099
:1044700061E08091E9159091EA150E941F4A0C9421
:10448000002F19821A821B821C8218A219A21AA25A
:104490001BA280913F0E882341F040E0BE016F5F78
:1044A0007F4FCE0180960E94EAE0809172118823AE
:1044B00019F081E0809371110E947E640C94002FAA
:1044C000109271110E94DA648AED92E0909391103B
:1044D000809390100E94DAED0C94002F809172115D
:1044E000882311F40C94002F83E50E94CD318111B3
:1044F0000C94652F0C94002F80917211811103C0D0
:10450000E1EFF2E02AC0EFEDF2E084918F010F5F5E
:104510001F4F882321F00E948DEFF801F6CF6091A4
:10452000ED137091EE138091EF139091F0134AE028
:104530000E9413F28FE20E948DEF6091E913709157
:10454000EA138091EB139091EC134AE00E9413F26E
:104550008AE00E948DEF0C94002F84918F010F5FF1
:104560001F4F882311F40C94002F0E948DEFF80147
:10457000F4CF40E060E08091E9159091EA150E9447
:104580001F4A0C94002F8091711181110F946200C9
:1045900080917211882311F40C94002F80E50E9401
:1045A000CD31882319F00E94583103C080E50E9464
:1045B0009E31182F482F61E08091E9159091EA15FE
:1045C0000E941F4A83E50E94CD31882381F00E941A
:1045D0003731AB01BC014093ED135093EE13609360
:1045E000EF137093F0138CE393E10E9462B8809113
:1045F0007211882319F081E08093711111110C94CC
:10460000002F5ACF8091E9159091EA1521E020936F
:10461000701140E060E00E941F4A0C94002F86E475
:1046200091E10E9468FF68A379A38AA39BA3BE01BE
:104630006F5F7F4FCE0180960E9490EE60E0CE01CA
:1046400001960E94B855E4E4F3E384918F010F5F73
:104650001F4F882321F00E948DEFF801F6CFBE0195
:104660006F5F7F4F82E093E00E94A08E8AE00E94FD
:104670008DEF0C94002F83E50E94CD31882311F437
:104680000C94002F0E944731E82E80E50E94CD3126
:10469000882341F00E9437318B0177FF02C00C94D0
:1046A000002F02C00DE010E0802FE9EEF5E09491BC
:1046B000891303C0EAE3FFE00AC0319626E0E13146
:1046C000F207A9F70C94752F0E948DEFF8018491E1
:1046D0008F010F5F1F4F8111F7CFEFE0F3E084915F
:1046E0008F010F5F1F4F882311F40C94002F0E943D
:1046F0008DEFF801F4CFF090420481E0F826F092BB
:104700004204E9E2F3E084918F010F5F1F4F882399
:1047100021F00E948DEFF801F6CFFF2019F0EEE1B5
:10472000F3E002C0E3E2F3E084918F010F5F1F4FDB
:10473000882311F40C94002F0E948DEFF801F4CF20
:104740000E947E640C94002F0E94CBE80C94002FF2
:1047500088E690E00E9476B281110C94002F80913F
:104760002B0583FF02C00C94002F83E50E94CD31FE
:104770008823E1F10E9467310F942B1BCB010E942B
:1047800020B80E94673120E030E04AEA52E40F94FA
:104790006A1518163CF00E94CBE860E08BE393E0CA
:1047A0000E949B550E9467312091FD0D3091FE0DB6
:1047B0004091FF0D5091000E0F940D1C1816B4F48B
:1047C00086E693E09F938F938091660E90E001962A
:1047D0009F938F9384E393E09F938F931F920E9404
:1047E000A6630FB6F894DEBF0FBECDBF0E942B8F1D
:1047F0000C94002F8EE40E94CD31882311F40C9488
:10480000002F0E9437316093EB047093EC04809387
:10481000ED049093EE040C94002F83E50E949E31EA
:10482000882359F083E50E94CD31882319F00E9436
:10483000473101C080E080932B05E4E4F3E38491E9
:104840008F010F5F1F4F811103C0EBE5F3E004C040
:104850000E948DEFF801F3CF84918F010F5F1F4FFE
:10486000882321F00E948DEFF801F6CF80912B056F
:10487000811103C0E7E5F3E034C08DE4C82E83E086
:10488000D82EE12CF12C20E080912B0590E00E2C0D
:1048900002C0959587950A94E2F780FF17C0BB2464
:1048A000B394B20E222319F08CE20E948DEFF60130
:1048B00085919491FC0184918F010F5F1F4F882394
:1048C00021F00E948DEFF801F6CF2B2D9FEFE91A12
:1048D000F90AE2E0CE0ED11CF5E0EF16F104A1F6E4
:1048E0000AC084918F010F5F1F4F882321F00E941F
:1048F0008DEFF801F6CF8AE00E948DEF0C94002F27
:1049000083E50E94CD31811103C0E4E4F3E30DC0DF
:104910000E9447318D3320F480933B020C94002F8A
:104920008CE380933B020C94002F84918F010F5FE6
:104930001F4F882321F00E948DEFF801F6CF4091A0
:104940003B0250E060E070E082E693E00E944D8E12
:104950008AE00E948DEF0C94002F80912B0583FF3D
:1049600002C00C94002F83E50E94CD31882311F4FE
:104970000C94002F0E9467310F942B1B6437710534
:1049800014F063E770E07093D50D6093D40D0E942E
:1049900044E70C94002F89E690E00E9476B28111E2
:1049A00011C0E9E6F3E084918F010F5F1F4F882368
:1049B00021F00E948DEFF801F6CF0E9435E48AE0E5
:1049C0000E948DEF1092540E1092530E0C94E42F0F
:1049D00083E50E94CD31882311F40C94002F0E94AE
:1049E0004731182F8D3308F01CE310934A0D0E94B5
:1049F000F9F56B017C01212F30E0A8EEB3E00F94B4
:104A0000D719C60ED71EE81EF91EC092460DD092C9
:104A1000470DE092480DF092490D0C94002F0E9432
:104A200014D50C94002F80E50E94CD31811108C06F
:104A300083E50E94CD31811109C03FEF20E00AC01B
:104A40000E94473181110C94002FF2CF0E94373120
:104A5000362F272F832F922F8F3F910519F010F0BB
:104A60008FEF90E090932D0580932C050C94002FF0
:104A700080E50E94CD31811106C010922D05109263
:104A80002C050C94002F0E943731672B11F00C94E9
:104A9000002FF3CF0E94E1C60C94002F0E9490E7F4
:104AA0000F9462000E94F59310922D0510922C0530
:104AB00010924504109244041092430468EE73E08F
:104AC00080E090E00E9475B660E08CE693E00E9482
:104AD0009B550C94002F109249040C94002F83E5F1
:104AE0000E94CD318823A1F00E94673120E030E0A0
:104AF0004AE754E40F94CF150F94301B60933C02A7
:104B000070933D0280933E0290933F020C94002FDD
:104B100088E50E949E3181110C948B2F89E50E94BB
:104B20009E3181110C948B2F8AE50E949E31811158
:104B30000C948B2F85E40E949E3181110C948B2F55
:104B40000F9462000E94F5930C94002F83E50E945D
:104B50009E31882311F40C94002F0E94673120E0CD
:104B600030E04AE754E40F94CF150F94301B609364
:104B7000510D7093520D8093530D9093540D0C94DE
:104B8000002F1EEAC12E12E0D12E02EBE02E00E132
:104B9000F02E10E0F60181916F010E949E31882372
:104BA00009F46DC0133009F063C00E9467314B01F6
:104BB0005C0120E030E040EA51E40F946A1587FF81
:104BC0004EC0A50194016091BE107091BF108091FC
:104BD000C0109091C1100F94C31A2B013C019B018E
:104BE000AC016091640770916507809166079091B0
:104BF00067070F94CF1560936407709365078093E0
:104C0000660790936707A3019201609180077091F6
:104C1000810780918207909183070F94CF1560934D
:104C20008007709381078093820790938307609138
:104C3000B5077091B6078091B7079091B8070F94A8
:104C40006E15A30192010F94CF150F94301B609342
:104C5000B5077093B6078093B7079093B807809213
:104C6000BE109092BF10A092C010B092C11007C0A9
:104C70000E946731F70160837183828393831F5F92
:104C8000F4E0EF0EF11C143009F084CF0E94B68FCF
:104C90000C94002F0F9462000E9471D10C94002F8D
:104CA00084918F010F5F1F4F882321F00E948DEFA9
:104CB000F801F6CF60E083E294E00E94BAC761E0B9
:104CC0008CE194E00E94BAC761E081E194E00E9427
:104CD000BAC761E081E094E00E94BAC760E088EF63
:104CE00093E00E94BAC761E08EEE93E00E94BAC7DB
:104CF00061E084EE93E00E94BAC761E08CED93E03E
:104D00000E94BAC761E08EEC93E00E94BAC760E0EF
:104D100080EC93E00E94BAC760E081EB93E00E94D0
:104D2000BAC760E083EA93E00E94BAC760E08DE80A
:104D300093E00E94BAC761E08CE793E00E94BAC793
:104D40000C94002F60E08091E9159091EA150E9483
:104D5000B8550C94002F85E40E94CD31882319F0BA
:104D60000E94583103C085E40E949E31882361F07F
:104D7000E4E4F3E384918F010F5F1F4F882321F058
:104D80000E948DEFF801F6CF81E40E94CD31882397
:104D900019F00E94583103C081E40E949E3188239B
:104DA00061F0E4E0F5E084918F010F5F1F4F8823ED
:104DB00021F00E948DEFF801F6CF0091E9151091D6
:104DC000EA15F80181918F01882309F494CD0E949E
:104DD0008DEFF7CF0E948DEFF80184918F010F5F67
:104DE0001F4F8111F7CFE3E2F5E084918F010F5F50
:104DF0001F4F882321F00E948DEFF801F6CF6599AF
:104E000003C001E313E002C00CE213E0F80181915A
:104E10008F01882319F00E948DEFF8CF8AE00E945D
:104E20008DEFEBE1F5E084918F010F5F1F4F882339
:104E300021F00E948DEFF801F6CF8091030181FDF2
:104E400003C001E313E002C00CE213E0F80181911A
:104E50008F01882319F00E948DEFF8CF8AE00E941D
:104E60008DEFE3E1F5E084918F010F5F1F4F882301
:104E700021F00E948DEFF801F6CF4B9B03C001E3B8
:104E800013E002C00CE213E0F80181918F01882346
:104E900019F00E948DEFF8CF8AE00E948DEFE8E0D4
:104EA000F5E084918F010F5F1F4F882321F00E944E
:104EB0008DEFF801F6CF959903C001E313E002C02E
:104EC0000CE213E0F80181918F01882309F413CDDE
:104ED0000E948DEFF7CF81E08093271180932611F8
:104EE0008FC783E50E94CD31882319F00E943731A6
:104EF00002C060E070E08B01112702301105D4F090
:104F0000EAE3FFE084918F010F5F1F4F811103C01F
:104F1000E5E4F5E004C00E948DEFF801F3CF849141
:104F20008F010F5F1F4F882309F46AC70E948DEF1E
:104F3000F801F5CF88E40E94CD318823A9F00E94C2
:104F400037316A3A71053CF06431F1E07F072CF0AB
:104F500063E171E002C06AEA70E0F801EE0FFF1F42
:104F6000E251F24F7183608386E40E94CD31882341
:104F7000A9F00E943731F801EE0FFF1FEA51F24FFE
:104F8000718360836F3F710519F014F06FEF70E06B
:104F900077FF02C060E070E07183608382E40E946A
:104FA000CD31882309F42CC70E9437316530710553
:104FB00034F0653671052CF064E670E002C065E0FF
:104FC00070E0000F111FF801E651F24F718360830A
:104FD00017C788EC90E00E9476B2811111C784E473
:104FE0000E949E31882309F441C00E9467316B0101
:104FF0007C0111E020E030E0A9010F946A158111D5
:1050000001C010E01093530720E030E0A901C70170
:10501000B6010F946A15882349F10E946731E09127
:10502000660E24E0E29FF0011124EC5AF84F6083F1
:1050300071838283938320E030E0A901609154075B
:105040007091550780915607909157070F946A15F4
:1050500081110CC080E090E0A0EEBFE38093540784
:1050600090935507A0935607B09357070E94057E6B
:10507000C7C67EEAE72E72E0F72E09EB17E0F701CC
:1050800081917F010E949E31882349F00E946731FF
:105090000F94301BF80160837183828393830C5FCC
:1050A0001F4FF7E0093C1F0751F70E945B8FA8C60E
:1050B0000C5F1F4FF7E004381F0709F4A1C6F70182
:1050C00081917F010E949E31882391F30E94673174
:1050D000F8016083718382839383EACF83E50E9422
:1050E0009E318823D9F00E946731AB01BC01409307
:1050F0006C0750936D0760936E0770936F07409332
:1051000068075093690760936A0770936B0781EC97
:1051100095E00E946A8E8AE00E948DEF80E50E94F1
:105120009E31882399F00E946731AB01BC01409306
:105130006C0750936D0760936E0770936F0784EA56
:1051400095E00E946A8E8AE00E948DEF82E50E94BF
:105150009E31882399F00E946731AB01BC014093D6
:10516000700750937107609372077093730785E817
:1051700095E00E946A8E8AE00E948DEF84E50E948D
:105180009E31882309F43CC60E946731AB01BC0103
:10519000409368075093690760936A0770936B07A1
:1051A00087E695E00E946A8E8AE00E948DEF28C60D
:1051B00083E50E949E31882351F00E9467316093FD
:1051C0008C0770938D0780938E0790938F0784E5EB
:1051D0000E949E31882351F00E94673160938807B6
:1051E0007093890780938A0790938B0782E40E94CB
:1051F0009E31882351F00E9480EE60938407709363
:105200008507809386079093870788E50E949E31E3
:10521000882351F00E9467316093580770935907B3
:1052200080935A0790935B0789E50E949E318823FB
:1052300051F00E94673160935C0770935D07809323
:105240005E0790935F078AE50E949E31882351F0A4
:105250000E946731609360077093610780936207D3
:105260009093630785E40E949E31882309F4C8C5A2
:105270000E946731609364077093650780936607A7
:1052800090936707BDC54EEAC42E42E0D42E55EA7E
:10529000E52E55E0F52E00E010E0F60181916F015A
:1052A0000E949E31882351F00E946731F70160838C
:1052B000718382839383C8010E9435B20F5F1F4FB1
:1052C000F4E0EF0EF11C0330110539F70C94721E57
:1052D0000E9403C695C583E50E94CD31882309F459
:1052E0008FC5C5D770930E0260930D0289C58DEDF1
:1052F00090E00E9476B2811183C583E50E94CD3192
:10530000882309F47DC50091660E10E0B0D7000F28
:10531000111FF801E55FFD4F718360838091660E78
:1053200090E08C01000F111F000F111F9801295FE1
:105330003D4F7901880F991FFC01E55FFD4F6081AA
:105340007181072E000C880B990B0F9470152AE0C1
:1053500037ED43E25CE30F94CF15F801E95DFA4FB6
:1053600020813181428153810F94CF15F7016083F1
:1053700071838283938344C580E5E0D7882309F451
:105380003FC575D76B017C0183E50E94CD31882331
:1053900019F06DD78B0102C00FEF1FEFC801019606
:1053A000039708F02DC5D7FC2BC58C2DE9EEF5E051
:1053B0009491891709F424C5319626E0E131F2076A
:1053C000B9F7D9C583E5E9D7882311F050D702C0D2
:1053D00064E071E079A368A380E5DFD7882331F02A
:1053E00046D7693833E1730730F402C068EE73E0E2
:1053F0007A83698304C088E893E19A838983BE0134
:10540000605E7F4FCE0101960E947DEAF9C485E47B
:10541000C4D781110EC080E591D7882381F057D77A
:1054200060939B1570939C1580939D1590939E158A
:1054300006C02DD7882379F3EAE3FFE06DC089E445
:105440007DD7882379F043D72CEA35EC47E25EE339
:105450000F94CF15609397157093981580939915B5
:1054600090939A1584E46AD7882379F030D72CEA90
:1054700035EC47E25EE30F94C31A60939F15709377
:10548000A0158093A1159093A215E4E4F3E3849111
:105490008F010F5F1F4F882321F00E948DEFF801CD
:1054A000F6CF40919B1550919C1560919D15709180
:1054B0009E1589E196E00E946A8E2CEA35EC47E25F
:1054C0005EE3609197157091981580919915909170
:1054D0009A150F94C31AAB01BC0185E196E00E94B6
:1054E0006A8E2CEA35EC47E25EE360919F1570917D
:1054F000A0158091A1159091A2150F94CF15AB0125
:10550000BC0181E196E00E946A8E8AE00E948DEFE4
:1055100077C40E948DEFF80184918F010F5F1F4FB8
:105520008111F7CF01E713E0F80181918F01882302
:1055300009F4E1C90E948DEFF7CF80E5FFD68823FB
:1055400049F0C5D660939315709394158093951583
:105550009093961589E4F2D6882379F0B8D62CEA90
:1055600035EC47E25EE30F94CF1560938F1570938F
:105570009015809391159093921584E4DFD688233B
:1055800079F0A5D62CEA35EC47E25EE30F94C31A16
:1055900060938B1570938C1580938D1590938E1559
:1055A000E4E4F3E384918F010F5F1F4F882321F020
:1055B0000E948DEFF801F6CF40919315509194150C
:1055C000609195157091961585E296E00E946A8E1D
:1055D0002CEA35EC47E25EE360918F1570919015EF
:1055E00080919115909192150F94C31AAB01BC0153
:1055F00081E296E00E946A8E2CEA35EC47E25EE397
:1056000060918B1570918C1580918D1590918E15F0
:105610000F94CF15AB01BC018DE196E00E946A8E1C
:105620008AE00E948DEFECC383E488D6882311F1D1
:105630001ED66F3F710519F010F06FEF70E0709398
:10564000680E6093670E162F8091FF10811105C0C0
:1056500081E08093FF100E94E4E96091C81070918E
:10566000C9101CA39E012C5D3F4F4FE086EC90E1DA
:105670000E946E6EE9E2F6E084918F010F5F1F4F8A
:10568000882321F00E948DEFF801F6CF8091670EFC
:105690009091680E0E945E648AE00E948DEFB0C314
:1056A00083E54CD6182F882369F011D60F942B1B55
:1056B000709341026093400221E0672B09F020E0E3
:1056C0002093010E80E53AD6882351F020914002C4
:1056D00030914102232B09F0EBD58093010E90C34A
:1056E00011118EC3E4E4F3E384918F010F5F1F4F28
:1056F000882321F00E948DEFF801F6CF8091010EF2
:10570000882319F06EE273E002C06BE373E083E577
:1057100096E00E94A08E609140027091410282E466
:1057200096E00E94878EEEE3F6E084918F010F5F92
:105730001F4F882309F464C30E948DEFF801F5CF51
:105740000E94F8C05DC30F9462005AC380E00E94BB
:1057500057B156C389E421D6882319F088D5062F7E
:1057600001C00FEF8AE419D6882319F080D5162FCF
:1057700001C01FEF8AE5E2D5F82E811104C081E552
:10578000DDD5D82E01C0D12C07FD06C017FD04C001
:10579000F1101CC0D1101AC0EAE3FFE084918F0120
:1057A0000F5F1F4F811103C0E5E8F6E004C00E94BF
:1057B0008DEFF801F3CF84918F010F5F1F4F882386
:1057C00009F41EC30E948DEFF801F5CF023010F4EA
:1057D0001230D0F0EAE3FFE084918F010F5F1F4F9A
:1057E000811103C0E6E6F6E004C00E948DEFF801E7
:1057F000F3CF84918F010F5F1F4F882309F400C3FB
:105800000E948DEFF801F5CFE02E000FFF08012F69
:10581000110F110B5CD5EE0CFF1CDD2071F0F701B0
:10582000E00FF11FEE0FFF1FEE0FFF1FE15FF14FC3
:10583000208131814281538103C020E030E0A90101
:105840000E0D1F1D000F111F000F111F015F114FC3
:105850000F94E719F8016083718382839383D0C228
:105860000E94C1638111CCC207EC10E322EA30E14F
:105870003FA32EA3CE0101964C0120E2A22E21E3EC
:10588000B22E1C01F8016591759185919491EEA15C
:10589000FFA1C190D190E190F190FFA3EEA3A701E9
:1058A00096010F94E6192B013C01F101608371838D
:1058B0008283938320E030E040EA51EC0F940D1C8A
:1058C00087FD0AC020E030E040EA51E4C301B201A4
:1058D0000F946A1518162CF4F501849118160CF41F
:1058E00040C3F101C190D190E190F1901F0120E0FF
:1058F00030E040EA51ECC701B6010F940D1C87FD62
:105900000AC020E030E040EA51E4C701B6010F943C
:105910006A15181684F5EAE3FFE084918F010F5FA2
:105920001F4F811103C0E3ECF6E004C00E948DEF2D
:10593000F801F3CF84918F010F5F1F4F882321F06F
:105940000E948DEFF801F6CF61E085EB96E00E94B2
:105950009B550E94483F88E290E099A388A388EC79
:1059600090E09DA38CA3BE01605E7F4FCE01849624
:105970000E947DEA45C20C5F1F4FFFEFAF1ABF0ABE
:1059800020E3033D120709F07DCF95EAE92E95E06B
:10599000F92E00E010E0F40181919191A191B19173
:1059A0004F01F70181939193A193B1937F01C801B6
:1059B0000E9435B20F5F1F4F0330110561F70E943F
:1059C00071D160E085EA96E00E949B5583E992E000
:1059D0009DA38CA304E610E019A308A3BE016C5D8F
:1059E0007F4FCE0180960E947DEA8AEB92E09DA3D4
:1059F0008CA319A308A3BE016C5D7F4FCE018096D6
:105A00000E947DEAFDC10E94F1C7FAC10E9492A1E5
:105A1000F7C183E593D4882319F04AD491E089270C
:105A20000E94EFA2EDC10E948DEFF80184918F01D9
:105A30000F5F1F4F8111F7CFEEE3F7E084918F01E5
:105A40000F5F1F4F882321F00E948DEFF801F6CFE2
:105A50008AE574D4882351F13AD46B017C0120E0AB
:105A600030E040EF51EC0F940D1C87FD0AC020E0A0
:105A700030E040EF51E4C701B6010F946A151816E3
:105A80006CF4E5E2F7E084918F010F5F1F4F8823EC
:105A900009F4B6C10E948DEFF801F5CFC092570509
:105AA000D0925805E0925905F0925A054091570559
:105AB000509158056091590570915A0582E297E01E
:105AC0000E946A8E8AE00E948DEF84E437D4882396
:105AD00051F1FDD36B017C0120E030E040EF51EC4F
