:100000000C94171B0C94481B0C94481B0C94481B15
:100010000C94481B0C94481B0C94481B0C94481BD4
:100020000C94481B0C94481B0C94481B0C94481BC4
:100030000C94481B0C9407F90C94481B0C94481B17
:100040000C94481B0C941FBC0C94481B0C94481B2C
:100050000C94481B0C94481B0C94B9E50C9471FF4C
:100060000C94481B0C942E460C94481B0C94481B73
:100070000C94481B0C94481B0C94481B0C94481B74
:100080000C94481B0C94481B0C94481B0C94481B64
:100090000C94481B0C94481B0C94481B0C94481B54
:1000A0000C94481B0C94481B0C94481B0C94481B44
:1000B0000C94481B0C94481B0C94481B0C94481B34
:1000C0000C94481B0C94481B0C94481B0C94481B24
:1000D0000C94481B0C94481B0C94481B0C94481B14
:1000E0000C94481B084AD73B3BCE016E84BCBFFD35
:1000F000C12F3D6C74319ABD56833DDA3D00C77FF8
:1001000011BED9E4BB4C3E916BAAAABE0000008090
:100110003F05A84CCDB2D44EB93836A9020C50B91F
:10012000918688083CA6AAAA2ABE000000803F004B
:100130000D9483060D94C80E0D946B0B0D94E0077F
:100140000D9432090D9417150D94D80E0D94591372
:100150000D947C0C0D946E0A4E414E494E495459F3
:10016000494E46CDCCCC3D0AD7233C17B7D1387782
:10017000CC2B329595E6241FB14F0A000020410098
:1001800000C84200401C4620BCBE4CCA1B0E5AAEE2
:10019000C59D74434F4D4D554E49434154494F4EB3
:1001A0000044525952554E004552524F5253004945
:1001B0004E464F004543484F004D657368205661D9
:1001C0006C69646174696F6E2053746F70706564DC
:1001D0002E00696E206D6F76655F746F282920662A
:1001E0006565645F76616C756520666F722058592D
:1001F0003A004C656176696E6720473236004732B7
:10020000362048656174696E67204E6F7A7A6C6536
:100210002E004732362048656174696E672042655A
:10022000642E00446F6E65205072696D696E6700C0
:10023000446F6E65205072696D696E67004669781B
:100240006564204C656E677468205072696D652E18
:1002500000557365722D436F6E74726F6C6C6564BC
:10026000205072696D65002C2065793D0029202D94
:100270003E202865783D002C2073793D0020436F97
:100280006E6E656374696E67207769746820766541
:1002900072746963616C206C696E65202873783DA7
:1002A000002C2065793D0029202D3E202865783DD1
:1002B000002C2073793D0020436F6E6E6563746976
:1002C0006E67207769746820686F72697A6F6E74E0
:1002D000616C206C696E65202873783D004C656107
:1002E00076696E6720473236002C2079693D002000
:1002F0002020446F696E6720636972636C652061BA
:10030000743A202878693D003F53706563696669D7
:10031000656420582C5920636F6F7264696E617434
:1003200065206F7574206F6620626F756E64732E22
:100330000A003F28522965706561742076616C75EA
:1003400065206E6F7420706C61757369626C653BBB
:10035000206D757374206265206174206C65617313
:100360007420312E0A003F537065636966696564C5
:10037000206E6F7A7A6C652074656D706572617439
:10038000757265206E6F7420706C61757369626C34
:10039000652E0A003F53706563696669656420666F
:1003A000696C616D656E742073697A65206E6F7417
:1003B00020706C61757369626C652E0A003F537022
:1003C00065636966696564207072696D65206C6536
:1003D0006E677468206E6F7420706C6175736962EB
:1003E0006C652E0A003F5370656369666965642019
:1003F0006E6F7A7A6C652073697A65206E6F7420EF
:10040000706C61757369626C652E0A003F52657489
:1004100072616374696F6E204D756C7469706C697C
:100420006572206D757374206265207370656369F1
:10043000666965642E0A003F537065636966696585
:10044000642052657472616374696F6E204D756CBF
:100450007469706C696572206E6F7420706C617560
:100460007369626C652E0A003F5370656369666943
:100470006564206C617965722068656967687420BD
:100480006E6F7420706C61757369626C652E0A0002
:100490003F537065636966696564206265642074B2
:1004A000656D7065726174757265206E6F74207011
:1004B0006C61757369626C652E0A00473236206381
:1004C0006F6D6D616E6420737461727465642E204B
:1004D00057616974696E6720666F72206865617420
:1004E00065722873292E0A004B494C4C45442E2036
:1004F000002569730025696D2025697300256968E9
:100500002025696D202569730025696420256968A7
:100510002025696D20256973002569792025696486
:10052000202569682025696D202569730053544F83
:10053000505045442E20005072696E7465722073CD
:10054000746F707065642064756520746F206572C7
:10055000726F72732E204669782074686520657208
:10056000726F7220616E6420757365204D39393960
:1005700020746F20726573746172742E2028546524
:100580006D70657261747572652069732072657330
:1005900065742E20536574206974206166746572D9
:1005A0002072657374617274696E67290A004E6FF8
:1005B00020436865636B73756D2077697468206C80
:1005C000696E65206E756D6265722C204C61737466
:1005D000204C696E653A2000636865636B73756DC6
:1005E000206D69736D617463682C204C6173742095
:1005F0004C696E653A20004C696E65204E756D62DF
:100600006572206973206E6F74204C617374204C86
:10061000696E65204E756D6265722B312C204C61C0
:100620007374204C696E653A20004D313130004DB5
:1006300033310053442072656164206572726F72B9
:100640000A00446F6E65207072696E74696E67206F
:1006500066696C650A0020496E76616C6964206584
:10066000787472756465722000000060C10000003B
:1006700000000000000080A44300009B430000A095
:1006800043486F6D65202573257325732066697255
:100690007374002066697273740A005A0059005816
:1006A00000486F6D65200042696C696E656172205B
:1006B0004C6576656C696E6720477269643A0A001A
:1006C00047322F47332062616420706172616D652B
:1006D000746572730A00473238205A20466F72627E
:1006E000696464656E0A00473238205A20466F728A
:1006F00062696464656E0020706F736974696F6EFF
:10070000206F7574206F662072616E67652E0A0017
:100710003F50726F62652000202844525952554E56
:100720002900473239204175746F20426564204C9E
:100730006576656C696E670028422961636B0028E5
:100740004629726F6E740028522969676874002800
:100750004C29656674003F2856296572626F73657F
:10076000206C6576656C20697320696D706C6175AD
:100770007369626C652028302D34292E0A0042618D
:1007800064205A2076616C75650A004E6F2062699C
:100790006C696E65617220677269640A004732385D
:1007A000205820590044656C6574696F6E2066613D
:1007B000696C65642C2046696C653A200046696C5A
:1007C000652064656C657465643A006F70656E20C1
:1007D0006661696C65642C2046696C653A20006D21
:1007E0000046696C616D656E7420757365643A20AE
:1007F0000053746174733A20002C204C6F6E67654F
:100800007374206A6F623A2000546F74616C2074B4
:10081000696D653A200053746174733A20002C208E
:100820004661696C65643A20002C2046696E6973E4
:100830006865643A20005072696E74733A20005300
:10084000746174733A200048656174696E6720644E
:100850006F6E652E0020573A0045256920257300EC
:10086000426C6F636B732050726F20533330207271
:10087000656164792E0042656420646F6E652E00A8
:1008800020573A004265642048656174696E672E9E
:1008900000205A3A0020423A0020436F756E7420BF
:1008A000413A0020453A00205A3A0020593A00586F
:1008B0003A003A004361703A00205A00205900582B
:1008C0000020204D61783A2000205A00205900581D
:1008D0000020204D696E3A20004F6E20004F666662
:1008E00000536F667420656E6473746F70733A2082
:1008F000004B64200023646566696E6520204445D2
:100900004641554C545F004B69200023646566697D
:100910006E65202044454641554C545F004B702085
:100920000023646566696E65202044454641554C48
:10093000545F00504944204175746F74756E652092
:1009400066696E69736865642120507574207468E7
:1009500065206C617374204B702C204B6920616E94
:1009600064204B6420636F6E7374616E74732066D1
:10097000726F6D2062656C6F7720696E746F2043B3
:100980006F6E66696775726174696F6E2E680A00B2
:10099000504944204175746F74756E6520666169B5
:1009A0006C6564212074696D656F75740A00544824
:1009B00045524D414C2052554E41574159005468C3
:1009C00065726D616C2052756E6177617900486562
:1009D0006174696E67206661696C65640048656171
:1009E00074696E67206661696C65640050494420D3
:1009F0004175746F74756E65206661696C656421FC
:100A00002054656D706572617475726520746F6FC6
:100A100020686967680A00204B643A2000204B690F
:100A20003A2000204B703A20000A20436C61737317
:100A3000696320504944200A002054753A20002060
:100A40004B753A2000206D61783A2000206D696E68
:100A50003A200020643A200020626961733A200045
:100A60004F66660A00466164652048656967687478
:100A70002000426564204C6576656C696E672000D5
:100A80004661696C656420746F20656E61626C6597
:100A900020426564204C6576656C696E670A004D7E
:100AA00036303020486F74656E6420746F6F206339
:100AB0006F6C6420746F206368616E67652066697F
:100AC0006C616D656E740A004732382058205900F9
:100AD000536C6565702E2E2E00205A3A2000205946
:100AE0003A200042656420583A20005072696E74C2
:100AF0002061626F72746564004731204531352092
:100B000046343030004732382058205900473120D1
:100B1000452D3130204632303030004739310047E2
:100B2000323820582059004D65736820706F696E07
:100B3000742063616E6E6F74206265207265736FDE
:100B40006C7665640A00526573756D696E67207016
:100B500072696E7400426C6F636B732050726F2009
:100B60005333302072656164792E00436C69636B86
:100B700020746F20726573756D652E2E2E004E6F7A
:100B8000206D6F76652E00456E642066696C652069
:100B90006C6973740A00426567696E2066696C65EA
:100BA000206C6973740A004D313235005344207053
:100BB00072696E74696E67206279746520004E6F89
:100BC00074205344207072696E74696E670A005015
:100BD00072696E742074696D653A200050726F748A
:100BE00065637465642050696E0A006F6E2E0A009A
:100BF0006F66662E0A0047323620446562756720AC
:100C00000045256920257300426C6F636B7320508B
:100C1000726F205333302072656164792E006F66E5
:100C20006600B401AF01A801A101930144454255FA
:100C3000473A004D3131332053006F6B00426C6FE7
:100C4000636B732050726F20533330204F66662ED3
:100C500000454D455247454E43595F50415253451B
:100C60005200434153455F4C494748545F42524903
:100C70004748544E45535300544F47474C455F4CEB
:100C8000494748545300534F4654574152455F50CB
:100C90004F574552004255494C445F5045524345D9
:100CA0004E54004C4556454C494E475F44415441D3
:100CB000005A5F50524F4245004155544F4C4556E3
:100CC000454C005052494E545F4A4F420050524FDB
:100CD0004752455353004155544F5245504F52547B
:100CE0005F54454D5000564F4C554D455452494365
:100CF00000454550524F4D0053455249414C5F58B5
:100D00004F4E5F584F4646004649524D5741524557
:100D10005F4E414D453A4D61726C696E20322E3006
:100D20002E3020284769746875622920534F555228
:100D300043455F434F44455F55524C3A6874747065
:100D4000733A2F2F6769746875622E636F6D2F4237
:100D50006C6F636B73546563686E6F6C6F67792F2C
:100D6000426C6F636B732D4669726D77617265209B
:100D700050524F544F434F4C5F56455253494F4E7C
:100D80003A312E30204D414348494E455F54595029
:100D9000453A426C6F636B732050726F205333304F
:100DA0002045585452554445525F434F554E543A8E
:100DB0003120555549443A33353732313661362D75
:100DC000376636642D343334652D386663652D619E
:100DD00032366530323935383632380A002F2F2016
:100DE0000066696C616D656E743A20007A5F6D69AA
:100DF0006E3A2000795F6D696E3A2000785F6D6908
:100E00006E3A20005265706F7274696E6720656E6D
:100E10006473746F70207374617475730A004D315C
:100E2000343520533C696E6465783E206F757420BC
:100E30006F662072616E67652028302D31290A00A7
:100E400053657474696E672054726176656C2041D5
:100E50006363656C65726174696F6E3A20005365F7
:100E60007474696E672052657472616374204163A3
:100E700063656C65726174696F6E3A2000536574C6
:100E800074696E67205072696E7420416363656C8B
:100E900065726174696F6E3A200053657474696E8F
:100EA00067205072696E7420616E6420547261769E
:100EB000656C20416363656C65726174696F6E3A3D
:100EC0002000000136372603FF3C3D380EFF2E3050
:100ED0003E12FFFF0C0809FFFFFF1A1C18FFFF0856
:100EE000440AFF43FFFFFFFFFFFF20643A00206931
:100EF0003A0020703A0020643A0020693A002070DD
:100F00003A006C636420636F6E7472617374207650
:100F1000616C75653A200043290A0061626C656462
:100F200020286D696E2074656D702000436F6C64BD
:100F30002065787472756465732061726520004D58
:100F400065736820706F696E742063616E6E6F7474
:100F5000206265207265736F6C7665640A004D349B
:100F6000323120696E636F727265637420706172D2
:100F7000616D657465722075736167650A004F66FF
:100F80006673657473206170706C69656400457286
:100F9000723A20546F6F206661722100546F6F2087
:100FA0006661722066726F6D207265666572656E2D
:100FB000636520706F696E740A003A20004F6666A0
:100FC000736574206265747765656E2070726F62F8
:100FD000657300207A5F6D696E3A20205A5F505227
:100FE0004F42455F4F46465345545F4D494E207A28
:100FF0005F6D61783A202033300A003A2000207A71
:101000005F6D696E3A20202D3330207A5F6D6178F4
:101010003A202033300A0050726F6265205A204F08
:1010200066667365740047323820582059004E6F49
:101030002063617365206C696768740A004163749A
:101040006976652045787472756465723A2000553A
:101050006E6B6E6F776E20636F6D6D616E643A209C
:101060002200526573656E643A20006F6B00207435
:101070006F6F206C6F6E6720657874727573696F1F
:101080006E2070726576656E7465640A0020636F09
:101090006C6420657874727573696F6E2070726508
:1010A00076656E7465640A00627573793A207061C2
:1010B0007573656420666F7220696E7075740A00BE
:1010C000627573793A2070617573656420666F721A
:1010D00020757365720A00627573793A2070726FB9
:1010E00063657373696E670A004B494C4C45442E27
:1010F00020004B494C4C2063617573656420627914
:10110000204B494C4C20627574746F6E2F70696E61
:101110000A004B494C4C45442E20004B494C4C2076
:1011200063617573656420627920746F6F206D75DB
:10113000636820696E6163746976652074696D65A2
:10114000202D2063757272656E7420636F6D6D6102
:101150006E643A20004D36303000506C6561736526
:10116000207265736574005052494E5445522048B0
:10117000414C544544005072696E74657220686138
:101180006C7465642E206B696C6C28292063616C1B
:101190006C6564210A00000060C1000000000000CE
:1011A000000000004842000048420000C04000002B
:1011B00000005761726E696E673A20486F6D696E04
:1011C000672042756D702044697669736F72203CA8
:1011D00020310A000202040000A0400000A04000EC
:1011E0000000400080AB4300009B430000A043FF91
:1011F000FFFF7C3C3E5E2B3D3F2F5B5D3B2C2A225C
:101200005C004572726F722077726974696E672034
:10121000746F20454550524F4D210A00290A002085
:1012200062797465733B2063726320005365747444
:10123000696E67732053746F7265642028002028DC
:1012400063616C63756C6174656429210A002021F7
:101250003D2000454550524F4D20435243206D697B
:10126000736D61746368202D202873746F726564D8
:10127000292000290A002062797465733B2063727B
:101280006320002073746F726564207365747469E1
:101290006E677320726574726965766564202800D4
:1012A000204D61726C696E3D563437290A0028451D
:1012B0004550524F4D3D00454550524F4D207665AB
:1012C0007273696F6E206D69736D6174636820005D
:1012D00048617264636F6465642044656661756C1F
:1012E000742053657474696E6773204C6F61646514
:1012F000640A00C4090000C4090000640000001072
:1013000027000000007A4300007A430000204100DB
:1013100000A0420000A0420000A0420000C843001C
:1013200000C84220204D3835312044005A2D5072DB
:101330006F62652D50726F6265204F6666736574CB
:10134000286D6D293A0A0020204D383531205A0089
:101350005A2D50726F6265204F666673657420283F
:101360006D6D293A0A0020204D3235302043004C63
:10137000434420436F6E74726173743A0A002044D0
:101380000020490020204D333034205000204400FC
:1013900020490020204D3330312050005049442056
:1013A00073657474696E67733A0A002046002042C0
:1013B0000020480020204D3134352053004D617409
:1013C000657269616C206865617475702070617206
:1013D000616D65746572733A0A00205A0020204DD1
:1013E0003432302053004175746F20426564204CC4
:1013F0006576656C696E673A0A00205A00205900CC
:1014000020204D323036205800486F6D65206F66C1
:10141000667365743A0A00204500205A002059007E
:1014200020580020420020540020204D323035202A
:101430005300416476616E6365643A20533C6D6984
:101440006E5F66656564726174653E20543C6D69CB
:101450006E5F74726176656C5F66656564726174F7
:10146000653E20423C6D696E5F7365676D656E74A5
:101470005F74696D655F75733E20583C6D61785F80
:1014800078795F6A65726B3E205A3C6D61785F7A4D
:101490005F6A65726B3E20453C6D61785F655F6A8F
:1014A00065726B3E0A0020540020520020204D320D
:1014B0003034205000416363656C65726174696FFC
:1014C0006E2028756E6974732F7332293A20503C50
:1014D0007072696E745F616363656C3E20523C722A
:1014E0006574726163745F616363656C3E20543C34
:1014F00074726176656C5F616363656C3E0A00209F
:101500004500205A0020590020204D32303120580B
:10151000004D6178696D756D20416363656C65721E
:101520006174696F6E2028756E6974732F73322928
:101530003A0A00204500205A0020590020204D3250
:1015400030332058004D6178696D756D2066656592
:101550006472617465732028756E6974732F7329C2
:101560003A0A00204500205A0020590020204D3919
:101570003220580053746570732070657220756E48
:1015800069743A0A0020204D3230302044300A007D
:1015900020204D3230302044002044697361626C59
:1015A00065640A0046696C616D656E7420736574CC
:1015B00074696E67733A0020204D3134392043201E
:1015C0003B20556E69747320696E2043656C7369A6
:1015D00075730A002020473231202020203B2055FF
:1015E0006E69747320696E206D6D0A0020746F6FD0
:1015F000206C6F6E6720657874727573696F6E20EA
:1016000070726576656E7465640A0020636F6C6441
:1016100020657874727573696F6E20707265766577
:101620006E7465640A0024F4D43050C38E20C2A2C4
:101630004017828B7011127A910D816CD90AA861C2
:10164000E108C7586607615143061E4B5D05C14559
:10165000A7041A411104093D98037139310340363A
:10166000DB0265339102D4305402802E1D02632CBC
:10167000EE01752AC501B028A001102781018F2530
:1016800064012B244B01E0223401AC211F018D2089
:101690000D01801FFC00841EED00971DDF00B81CAB
:1016A000D200E61BC600201BBC00641AB200B219AF
:1016B000A8000A19A0006A189900D11791004017D4
:1016C0008B00B516840031167E00B31579003A15EB
:1016D0007300C7146F0058146A00EE136600881375
:1016E000630025135E00C7125B006C1257001512D1
:1016F0005400C111510070114F0021114B00D61040
:1017000049008D1047004610440002104200C00FEF
:101710004000800F3E00420F3C00060F3B00CB0E06
:101720003800930E37005C0E3500270E3400F30DA1
:101730003200C10D3100900D3000600D2E00320DD1
:101740002D00050D2C00D90C2B00AE0C2900850CAA
:1017500029005C0C2700350C27000E0C2600E80B36
:101760002400C40B2400A00B23007D0B23005A0B84
:101770002100390B2100180B2000F80A1F00D90A9C
:101780001E00BB0A1E009D0A1D00800A1D00630A80
:101790001C00470A1B002C0A1B00110A1A00F7093B
:1017A0001A00DD091900C4091900AB0919009209D2
:1017B00017007B091800630917004C091600360949
:1017C0001600200916000A091500F5081500E008A2
:1017D0001400CC081400B8081400A40814009008E1
:1017E00013007D0812006B08130058081200460809
:1017F000120034081100230811001208110001081A
:101800001100F0071000E0071000D0071000C0071B
:101810001000B0070F00A107100091070E0083070A
:101820000F0074070F0065070E0057070E004907E9
:101830000E003B070D002E070E0020070D001307BA
:101840000D0006070D00F9060C00ED060D00E00680
:101850000C00D4060C00C8060C00BC060C00B00638
:101860000C00A4060B0099060C008D060B008206E6
:101870000B0077060B006C060B0061060A0057068A
:101880000B004C060A0042060A0038060A002E0623
:101890000A0024060A001A060A00100609000706B4
:1018A0000A00FD050900F4050900EB050900E20541
:1018B0000900D9050900D0050900C7050900BE05C2
:1018C0000900B5050800AD050800A50509009C053F
:1018D0000800940508008C050800840508007C05B4
:1018E0000800740508006C050700650508005D0523
:1018F0000700560508004E0507004705070040058C
:10190000080038050700310507002A0507002305F0
:1019100007001C050600160507000F05070008054F
:10192000060002050700FB040600F5040700EE04AC
:101930000600E8040600E2040700DB040600D50404
:101940000600CF040600C9040600C3040600BD0457
:101950000600B7040600B1040500AC040600A604A6
:101960000600A00405009B040600950405009004F1
:1019700006008A04050085040500800406007A0438
:10198000050075040500700405006B04050066047D
:101990000500610405005C040500570405005204BD
:1019A00005004D04050048040500430405003E04FD
:1019B00004003A04050035040500300404002C043A
:1019C000050027040400230405001E0404001A0473
:1019D000040016040500110404000D0404000904A9
:1019E00005000404040000040400FC030400F803E0
:1019F0000400F4030400F0030400EC030400E80313
:101A00000400E4030400E0030400DC030400D80342
:101A10000400D4030400D0030400CC030400C80372
:101A20000300C503030024F404D9201BC40C5C0E7E
:101A30009804C4095F0265077101F405F900FB040D
:101A4000B30048048700C10369005803550003032D
:101A50004500BE023A008402310053022A002902E6
:101A6000250004022000E4011C00C8011900AF0198
:101A70001700980114008401130071011000610126
:101A8000100051010E0043010D0036010B002B0127
:101A90000B0020010B00150109000C0109000301D6
:101AA0000800FB000800F3000800EB000700E4005A
:101AB0000600DE000600D8000600D2000600CC00BA
:101AC0000500C7000500C2000500BD000400B90004
:101AD0000400B5000400B1000400AD000400A9003A
:101AE0000400A5000300A20003009F0004009B0067
:101AF000030098000300950002009300030090008B
:101B000003008D0002008B000300880002008600A5
:101B1000020084000300810002007F0002007D00BB
:101B200002007B00020079000200770001007600CD
:101B300002007400020072000100710002006F00D8
:101B400002006D0001006C0002006A0001006900E3
:101B500002006700010066000100650001006400EA
:101B600002006200010061000100600001005F00EE
:101B700002005D0001005C0001005B0001005A00F2
:101B800001005900010058000100570001005600F3
:101B900001005500010054000100530000005300F3
:101BA00001005200010051000100500001004F00EF
:101BB00001004E0000004E0001004D0001004C00ED
:101BC00001004B0000004B0001004A0001004900E9
:101BD00001004800000048000100470001004600E5
:101BE00000004600010045000000450001004400DF
:101BF00001004300000043000100420000004200D9
:101C000001004100000041000100400001003F00D0
:101C100000003F0001003E0000003E0001003D00CA
:101C200000003D0001003C0000003C0000003C00C2
:101C300001003B0000003B0001003A0000003A00B8
:101C400001003900000039000100380000003800B0
:101C500000003800010037000000370001003600A6
:101C6000000036000000360001003500000035009D
:101C70000000350001003400000034000000340092
:101C80000100330000003300000033000100320087
:101C9000000032000000320001003100000031007D
:101CA0000000310001003000000030000000300072
:101CB00001002F0000002F0000002F0000002F0067
:101CC00001002E0000002E0000002E0001002D005B
:101CD00000002D0000002D0000002D0001002C0050
:101CE00000002C0000002C0000002C0001002B0044
:101CF00000002B0000002B0000002B0001002A0038
:101D000000002A0000002A0000002A00010029002B
:101D1000000029000000290000002900000029001F
:101D20000100280000002800000028000000280012
:101D30000000280001002700000027000000270005
:101D400000002700000027000100260000002600F8
:101D500000002600000026000000260001002500EB
:101D600000002500000025000000250000002500DF
:101D700000002500010024000000240000002400D1
:101D800000002400000024000100230000002300C4
:101D900000002300000023000000230000002300B7
:101DA00000002300010022000000220000002200A9
:101DB000000022000000220000002200010021009B
:101DC000000021000000210000002100000021008F
:101DD0000000210000002100010020000000200080
:101DE0000000200000002000000020000000200073
:101DF000000020000000200001001F0000001F0064
:101E000000001F0000001F0000001F0000001F0056
:101E100000001F0001001E0000001E0000001E0048
:101E200000001E0000004D383420582059205A2050
:101E300045006265640A002C2073797374656D2017
:101E400073746F7070656421204865617465725F9A
:101E500049443A200048656174696E67206661698B
:101E60006C65640048656174696E67206661696CC1
:101E700065640048656174696E67206661696C65B8
:101E8000640048656174696E67206661696C6564A9
:101E90000070012C0190012701B0012201C0011D39
:101EA00001F00118011002130130020E0160020955
:101EB0000190020401C002FF000003FA004003F594
:101EC000008003F000D003EB002004E6007004E182
:101ED00000E004DC004005D700C005D2004006CD7C
:101EE00000D006C8008007C3003008BE00F008B963
:101EF00000C009B400B00AAF00B00BAA00D00CA516
:101F000000000EA000500F9B00C0109600501291D0
:101F10000000148C00C0158700B0178200B0197D36
:101F200000D01B7800001E730040206E00902269D4
:101F300000F024640040275F0090295A00E02B55F0
:101F400000102E500020304B0010324600E033418C
:101F50000090353C001037370070383200A0392D22
:101F600000B03A2800A03B2300603C1E00103D1941
:101F700000903D1400103E0F00703E0A00C03E0568
:101F800000003F0000403FFBFF803FF6FFC03FF1F5
:101F9000FF544845524D414C2052554E41574159EE
:101FA00000546865726D616C2052756E617761795D
:101FB000004572723A204D494E54454D50204245DD
:101FC00044004572723A204D494E54454D50004DE3
:101FD000494E54454D502074726967676572656457
:101FE000004572723A204D415854454D50204245AB
:101FF00044004572723A204D415854454D50004DB1
:10200000415854454D502074726967676572656424
:1020100000202F002042403A0020403A0025753A27
:102020002530327500253032753A2530327500255D
:10203000756420253032753A25303275000920004C
:102040000000000000000000000000007FFFE00032
:1020500000000000000000000000007000E0000030
:102060000000000000000000000061F860000000B7
:1020700000000000000000000041F8200000000007
:10208000000000000000000040F020000000000000
:102090000000000000000040602000000000000080
:1020A0000000000000005801A07F80000000000038
:1020B00000004104005C63A0FFC0000000000000BD
:1020C000002082005EF7A0FFC000000000000000BA
:1020D0002082005EF7A0FFC0000000000000004169
:1020E00004005C63A07F8000000000000000820804
:1020F000005801A07F8000000000000001041000D3
:10210000406020FFC00000000000000104100040FB
:10211000F020FFC00000000000000082080041F82D
:1021200020FFC00000000000000041040061F860D2
:102130003F00000000000000000000007000E01EF2
:102140000000000000000001FFFF807FFFE00C00A6
:1021500000000000000001FFFF8000000000000000
:102160000000000000000000007FFFE00000000011
:1021700000000000000000007000E000000000000F
:1021800000000000000000630C6000000000000080
:10219000000000000000470E2000000000000000CA
:1021A00000000000004F0F200000000000000000B1
:1021B000000000005F0FA000000000000000000011
:1021C0000000005E07A07F800000000000000041CA
:1021D0000400406020FFC0000000000000002082DA
:1021E0000040F020FFC0000000000000002082003E
:1021F00040F020FFC000000000000000410400404B
:1022000060207F80000000000000008208005E0760
:10221000A07F80000000000000010410005F0FA0FC
:10222000FFC0000000000000010410004F0F20FF5D
:10223000C000000000000000820800470E20FFC020
:1022400000000000000000410400630C603F00003B
:102250000000000000000000007000E01E00000010
:102260000000000001FFFF807FFFE00C0000000085
:1022700000000001FFFF800000005072696E7420B2
:10228000706175736564004D313235005072696E4E
:10229000742061626F727465640047312045313586
:1022A000204634303000473238205820590047311A
:1022B00020452D3130204632303030004739310052
:1022C000004D32340054756E6500506175736520A1
:1022D0007072696E7400436F6E74726F6C00506C34
:1022E0006174650046696C616D656E740053746F4E
:1022F00070207072696E740054756E65004E6F20A8
:1023000053442063617264005072696E7420667277
:102310006F6D20534400526573756D65207072694E
:102320006E740053746F70207072696E7400506127
:10233000757365207072696E74004261636B004D45
:10234000363030204230004368616E676520666930
:102350006C616D656E7400466C6F7700466C6F77CC
:102360000046616E2073706565640046616E20737F
:10237000706565640042656400426564004E6F7A72
:102380007A6C65004E6F7A7A6C650053706565648F
:10239000005370656564004D61696E004D6F766530
:1023A0002058004D6F76652059004D6F7665205A94
:1023B000004D6F766520302E316D6D004D6F766566
:1023C00020316D6D004D6F76652031306D6D0042AE
:1023D00061636B004D6F7665205A004D6F76652006
:1023E00059004D6F76652058004175746F20686FF5
:1023F0006D6500473238004D6F7665205A004D6F8D
:1024000076652059004D6F76652058004261636BF8
:10241000004D6F766520617869730050726568655C
:10242000617420504C410054656D70657261747523
:1024300072650044697361626C65207374657070C5
:10244000657273004D3834004175746F20686F6D8C
:102450006500473238004261636B00436F6F6C6404
:102460006F776E0046616E2073706565640046612B
:102470006E207370656564004265640042656400A7
:102480004E6F7A7A6C65004E6F7A7A6C65004261A5
:10249000636B0043616E6E6F7420656E74657220AD
:1024A0007375626469723A2000022E2E00426163E5
:1024B0006B0020204E6F7A7A6C653A200020004233
:1024C00061636B004D696E696D756D2054656D704B
:1024D000206973203137302E0048656174696E675A
:1024E000206661696C656400457874727564652066
:1024F0006D6F726500526573756D65207072696EDF
:102500007400524553554D45204F5054494F4E533A
:102510003A00426C6F636B732050726F20533330FC
:102520002072656164792E0053746F700000004C56
:102530006F6164204E65772046696C616D656E74CD
:1025400000524553554D45204F5054494F4E533A34
:102550000020204E6F7A7A6C653A20006368616EC5
:102560006765006F66207468652066696C616D65DB
:102570006E74005761697420666F722073746172A3
:10258000740046494C414D454E54204348414E4706
:10259000450020204E6F7A7A6C653A200020006654
:1025A000696C616D656E7420756E6C6F6164005747
:1025B00061697420666F720046494C414D454E5426
:1025C000204348414E47450020204E6F7A7A6C6583
:1025D0003A20002000506C65617365207761697452
:1025E0002E2E2E0048656174696E67206E6F7A7AB0
:1025F0006C650048454154494E47204E4F5A5A4C4D
:10260000450020204E6F7A7A6C653A2000200068E1
:10261000656174206E6F7A7A6C652E0050726573F6
:102620007320627574746F6E20746F0046494C415C
:102630004D454E54204348414E47450020204E6FA3
:102640007A7A6C653A2000746F20636F6E74696EDD
:1026500075652E2E2E00616E642070726573732076
:10266000627574746F6E00496E736572742066696A
:102670006C616D656E740046494C414D454E542069
:102680004348414E47450020204E6F7A7A6C653AA8
:102690002000200066696C616D656E74206C6F614E
:1026A00064005761697420666F720046494C414D61
:1026B000454E54204348414E47450020204E6F7AF6
:1026C0007A6C653A2000616E6420707265737320C5
:1026D00074686520627574746F6E0066696C616DF4
:1026E000656E7420657874727564650057616974ED
:1026F00020666F720046494C414D454E5420434878
:10270000414E474500746F20726573756D650057C3
:1027100061697420666F72207072696E7400464938
:102720004C414D454E54204348414E4745004E656F
:10273000787420506F696E74000000746F206265B9
:102740002061646A757374656400756E74696C20C9
:102750007468657265206973206E6F20706F696E92
:1027600074206E656564696E6700546869732066DD
:10277000756E6374696F6E2077696C6C207265701A
:10278000656174004C6576656C696E6700417373B2
:10279000697374656420426564004C6576656C6994
:1027A0006E670041737369737465642042656400E9
:1027B0000050726F62696E67000000627574746F1A
:1027C0006E20746F20636F6E74696E7565006D6145
:1027D0006E75616C20616E64207072657373207415
:1027E00068650050696563652061732073686F7761
:1027F0006E20696E2074686500506C6163652043CB
:10280000616C6962726174696F6E004C6576656CAB
:10281000696E6720446F6E6521004173736973743C
:1028200065642042656400002000627574746F6EF8
:1028300020746F20636F6E74696E756500747765C0
:10284000657A6572732026207072657373207468D0
:102850006500436C65616E20746865204E6F7A7AFE
:102860006C65207769746800202000204341524540
:1028700046554C20484F542120004C6576656C69C4
:102880006E67004D616E75616C20426564000043A7
:102890006172642072656D6F766564004361726475
:1028A00020696E73657274656400473238005A009F
:1028B0004261636B004E6F00473337005965730008
:1028C00047333600497320746865206E6F7A7A6CDE
:1028D0006520636C65616E3F004D3731300020200C
:1028E0004E6F7A7A6C653A2000506C656173652092
:1028F000776169742E2E2E0048656174696E6720B9
:102900006E6F7A7A6C65004C4F41442046494C41C9
:102910004D454E54004261636B004D37313100200C
:10292000204E6F7A7A6C653A2000506C6561736551
:1029300020776169742E2E2E0048656174696E6778
:10294000206E6F7A7A6C6500554E4C4F414420469C
:10295000494C414D454E54004261636B004733344E
:102960000020204265643A200048656174696E6702
:10297000206265642E2E2E004C6576656C696E674C
:102980000041737369737465642042656400426139
:10299000636B004261636B004142532F50455447C3
:1029A0002F4E594C4F4E2F4F5448455200504C41DA
:1029B0000053656C656374206D6174657269616C48
:1029C0003A004261636B004142532F504554472FF8
:1029D0004E594C4F4E2F4F5448455200504C4100D9
:1029E00053656C656374206D6174657269616C3ADE
:1029F00000556E6C6F6164004C6F6164004C6F61D8
:102A00006420284C6F616465642129004261636B16
:102A1000004E6F005965730076616C7565732077A1
:102A2000696C6C2062652073617665640046616341
:102A3000746F72792043616C6962726174696F6E40
:102A40000041726520796F7520737572653F005281
:102A50006573657420454550524F4D0043616C6964
:102A600062726174652070726F62657300473339FA
:102A7000004E6F7A7A6C652041646A7573746D6577
:102A80006E74004D616E75616C204C6576656C20CE
:102A9000506C61746500473430004C6576656C207D
:102AA000506C617465004261636B00FFE0FFD11000
:102AB00000FFFEFFD0FFE0FFC1FFD1E240A0C8A6AB
:102AC000A22FF800238127AC00AFFF64A5FF64FFAD
:102AD00064A4FFD0FFFE00002100240027002A008C
:102AE0002D003000330001010000040107010A013C
:102AF000000020002300260029002C002F003200B7
:102B00000001000003010601090100000A0B02098F
:102B10000C0D0E0807030401000000000000000077
:102B200000000000000000000000000000000000A5
:102B30000000000000001211100000000000000062
:102B40000000000000000000000000000000000085
:102B50000000000000000000000000000000000075
:102B60000000000000000000000000000000000065
:102B70000000000000000000000000000000000055
:102B80000000000000000000000000000000000045
:102B90000000000000000000000000000000000035
:102BA0000000000000000000000000000000000025
:102BB0000000000000007FFFFE001F00000001E099
:102BC000FFC078007FFFFE00FFE0701E07FCFFE003
:102BD00078007FFFFE03FFF0703E0FFEFFF07800ED
:102BE0007FFFFE07F1F0707C1F3EE0F87800780070
:102BF0001E0F803070781E0CE078780078001E0F71
:102C0000001070F01C00E078780078001E1E0000B4
:102C100071E01C00E078780078001E1E000073C090
:102C20001E00E070780078001E3C000077801F00D6
:102C3000E0F0780078001E3C00007F000FC0FFE04D
:102C4000780078001E3C00007F0007F0FFE078006D
:102C500078001E3C00007F0003F8FFF87800780041
:102C60001E3C0000778000FEE078780078001E3C73
:102C7000000073C0003EE03C780078001E3C00007D
:102C800071E0001FE03C780078001E1C000071F02D
:102C9000000FE03C780078001E1E000070F0000F6E
:102CA000E03C780078001E1F00107078180FE07C60
:102CB000780078001E0F8030703C3C0FFFF87FF8E2
:102CC0007FFFFE07F1F0703E1F3EFFF07FF87FFFB1
:102CD000FE03FFF0701F1FFEFFE07FF87FFFFE0185
:102CE000FFE0700F0FFC000000007FFFFE003F8040
:102CF000000003F0000000000000000000000000E1
:102D000000000000000000000000000000000000C3
:102D100000000000000000000000000000000000B3
:102D200000000000000000000000000000000000A3
:102D30000000000000000000000000000000000093
:102D40000000000000000000000000000000000083
:102D50000000000000000000000000000000000073
:102D6000000000002020506C616E6E657242756636
:102D700066657242797465733A2000204672656513
:102D8000204D656D6F72793A2000436F6D70696CEC
:102D900065643A204F637420313520323032300A76
:102DA00000207C20417574686F723A2028426C6F55
:102DB000636B732C204F6E65204D4B3220312E31CA
:102DC0002E31290A00323031372D31322D32352063
:102DD00031323A303000204C617374205570646198
:102DE0007465643A2000322E302E300A004D617234
:102DF0006C696E0020536F6674776172652052654E
:102E00007365740A00205761746368646F672052A9
:102E1000657365740A002042726F776E206F757457
:102E20002052657365740A002045787465726E617E
:102E30006C2052657365740A00506F776572557027
:102E40000A0073746172740A006572726F7220777F
:102E5000726974696E6720746F2066696C650A0018
:102E6000456E6473746F707320256320256320257D
:102E70006320256300205A3A0020593A0020583A2E
:102E800000656E6473746F7073206869743A200013
:102E9000446F6E6520736176696E672066696C6544
:102EA0002E0A004D3239000102102020080810209F
:102EB00040102040800201020108040201010204C6
:102EC0000810204080804020100804020180040285
:102ED00001804020100804020108040201010204DC
:102EE00008102040800102040810204080000022C9
:102EF00000250028002B002E0031003400020100C4
:102F000000050108010B010505050507050808086E
:102F100008020202020A0A0808040404040101016A
:102F20000101010101030303030303030304070772
:102F3000070C0C0C0C0C0C0C0C0202020206060610
:102F400006060606060B0B0B0B0B0B0B0B02507247
:102F50006F62696E67206661696C65640A00507211
:102F60006F62696E67206661696C656400205A3A19
:102F7000200020593A200042656420583A2000572A
:102F8000726974696E6720746F2066696C653A2097
:102F9000006F70656E206661696C65642C204669FF
:102FA0006C653A20006F70656E206661696C6564BF
:102FB0002C2046696C653A200046696C6520736573
:102FC0006C65637465640A002053697A653A200071
:102FD00046696C65206F70656E65643A20006F709D
:102FE000656E206661696C65642C2046696C653A83
:102FF00020002066696C653A2000646F696E670086
:103000006672657368004E6F772000454E4420530A
:103010005542524F5554494E450A002220706F7355
:10302000002220706172656E743A2200535542523C
:103030004F5554494E452043414C4C2074617267B2
:1030400065743A22004B494C4C45442E2000747262
:1030500079696E6720746F2063616C6C2073756290
:103060002D67636F64652066696C6573207769748A
:103070006820746F6F206D616E79206C6576656C69
:10308000732E204D4158206C6576656C2069733A2B
:103090000043616E6E6F74206F70656E2073756291
:1030A000646972200053442063617264206F6B0A6C
:1030B000006F70656E526F6F74206661696C656435
:1030C0000A00766F6C756D652E696E697420666195
:1030D000696C65640A004572726F723A005344204D
:1030E000696E6974206661696C0A006175746F2588
:1030F000692E67004D3234004D3233202573006550
:103100006E7175657565696E672022006563686F0D
:103110003A0000060900FE0701920321207FFF0705
:10312000FF07FF00000006000001070706020080FD
:10313000808080800080030202060105A0A00507B0
:10314000070600005050F850F850500507070600D9
:10315000002078A07028F020050707060000C0C8EE
:1031600010204098180507070600006090A040A8AE
:103170009068020303060104C040800307070601AC
:103180000020408080804020030707060100804027
:10319000202020408005050506000120A870A820F9
:1031A0000505050600012020F82020020303060281
:1031B000FFC04080050101060003F802020206027A
:1031C00000C0C00505050600010810204080050765
:1031D0000706000070888888888870030707060142
:1031E0000040C040404040E00507070600007088EE
:1031F00008708080F8050707060000F81020100806
:1032000008F005070706000010305090F810100570
:103210000707060000F880F0080888700507070611
:103220000000708080F0888870050707060000F8AD
:1032300008102020202005070706000070888870ED
:10324000888870050707060000708888780808706D
:10325000020505060200C0C000C0C0020606060244
:10326000FFC0C000C04080040707060000102040D7
:1032700080402010050303060002F800F804070749
:10328000060100804020102040800507070600004E
:1032900070880810200020050707060000708808C5
:1032A00068A8A870050707060000708888F8888855
:1032B00088050707060000F08888F08888F0050771
:1032C0000706000070888080808870050707060068
:1032D00000F08888888888F0050707060000F880D5
:1032E00080F08080F8050707060000F88080F080F5
:1032F0008080050707060000708880B88888700500
:103300000707060000888888F8888888010707066C
:1033100002008080808080808005070706000038DA
:103320001010101090600507070600008890A0C0DC
:10333000A09088050707060000808080808080F8C4
:1033400005070706000088D8A88888888805070729
:103350000600008888C8A898888805070706000026
:1033600070888888888870050707060000F08888BC
:10337000F080808005070706000070888888A89084
:1033800068050707060000F08888F0A09088050708
:1033900007060000788080700808F005070706001F
:1033A00000F820202020202005070706000088883C
:1033B00088888888700507070600008888888888BC
:1033C00050200507070600008888888888A85005CF
:1033D00007070600008888502050888805070706E0
:1033E000000088888850202020050707060000F884
:1033F0000810204080F8030707060100E080808065
:103400008080E005050506000180402010080307C4
:1034100007060100E02020202020E005030306002D
:1034200004205088050101060000F802020206028D
:1034300005804005050506000070087888780507B6
:10344000070600008080B0C88888F00505050600E2
:1034500000708080887005070706000008086898DB
:103460008888780505050600007088F880700507D3
:10347000070600003048E0404040400506060600D0
:10348000FF7088887808700507070600008080B004
:10349000C888888801070706020080008080808035
:1034A000800308080601FF200020202020A04004FF
:1034B0000707060000808090A0C0A09003070706C1
:1034C0000100C04040404040E0050505060000D036
:1034D000A8A8A8A8050505060000B0C88888880522
:1034E000050506000070888888700506060600FF3E
:1034F000F08888F080800506060600FF78888878C6
:103500000808050505060000B0C88080800505058F
:1035100006000070807008F00407070600004040B5
:10352000E04040403005050506000088888898681E
:103530000505050600008888885020050505060059
:10354000008888A8A850050505060000885020506E
:10355000880506060600FF88888878087005050536
:10356000060000F8102040F803070706010020407D
:103570004080404020010707060200808080808054
:1035800080800307070601008040402040408005FE
:103590000202060002689000000006000000060912
:1035A00000FE000000000001090008FE0000050800
:1035B0000806000040F0C8888898781005080806BA
:1035C0000000C0F88888888888F80505050600018D
:1035D0002030F830200508080600002070F8202070
:1035E0002020E00509090600FF2070A8A8B88888F7
:1035F00070200509090600FFE080C0B0A828302827
:10360000280509090600FFF8A88888888888A8F88E
:10361000050A0A0600FE205050505088A8A888705D
:1036200003030306000340A04000A200A6001124EB
:103630001FBECFEFD1E2DEBFCDBF00E00CBF14E074
:10364000A0E0B2E0E6E9FFE402E00BBF02C00790B1
:103650000D92AE33B107D9F725E1AEE3B4E001C076
:103660001D92AD3FB207E1F71BE1C6E1DBE100E0EF
:1036700006C021970109802FFE010F943C27C53118
:10368000D10780E00807A9F70F9465160D94BA27B3
:103690000C940000CF92DF92EF92FF92CF93DF93D2
:1036A000EC01C090FC0BD090FD0BE090FE0BF09075
:1036B000FF0BA7019601688179818A819B810F9414
:1036C000E41F87FF04C0C882D982EA82FB82C090CF
:1036D000000CD090010CE090020CF090030CA701BC
:1036E00096016C817D818E819F810F94E41F87FFFD
:1036F00004C0CC82DD82EE82FF82C0903602D09080
:103700003702E0903802F0903902A70196016881F3
:1037100079818A819B810F947326181624F4C882BC
:10372000D982EA82FB82C0903A02D0903B02E090BC
:103730003C02F0903D02A70196016C817D818E8153
:103740009F810F947326181624F4CC82DD82EE82BA
:10375000FF82C090040CD090050CE090060CF09015
:10376000070CA7019601688579858A859B850F944A
:10377000E41F87FF04C0C886D986EA86FB86C0900E
:103780003E02D0903F02E0904002F0904102A7013B
:103790009601688579858A859B850F94732618160E
:1037A00024F4C886D986EA86FB86DF91CF91FF9004
:1037B000EF90DF90CF900895129A08955F9AEFE20C
:1037C000FDE010828A9A11829FB7F894A8E0B1E0D8
:1037D0008C9181608C939FBF1282EECFCF92DF924B
:1037E000EF92FF92CF93DF936B017C01EA0129E115
:1037F00034E040E651EC0F94732687FD23C021E2AC
:1038000030E844EA53E4C701B6010F94E41F1816E8
:10381000CCF0C880D980EA80FB802FE632E143E813
:103820005AEBC701B6010F94732687FD0BC0C1E0A8
:1038300021E230E04BE953E4C701B6010F94E41FE5
:1038400018160CF4C0E08C2FDF91CF91FF90EF9011
:10385000DF90CF900895CF92DF92EF92FF92609128
:103860009E0670919F06072E000C880B990B0F94F3
:10387000EA1F6B017C012DEB37E346E855EB0F9413
:10388000732687FD0BC02DEB37E346E855E3C701F0
:10389000B6010F94E41F18160CF043C0A70196015F
:1038A00060E070E080E89FE30F9429256093FC05B9
:1038B0007093FD058093FE059093FF056091A0062F
:1038C0007091A106072E000C880B990B0F94EA1F2C
:1038D0006B017C012DEB37E346E855EB0F94732623
:1038E00087FD0AC02DEB37E346E855E3C701B60173
:1038F0000F94E41F1816CCF4A701960160E070E065
:1039000080E89FE30F9429256093000670930106D9
:103910008093020690930306FF90EF90DF90CF9084
:10392000089560E070E0CB01C1CF60E070E0CB01B2
:10393000EBCF0F931F93CF93DF93EC01CC0FDD1FE1
:10394000CC0FDD1F8E010A57124FFE01ED5CF24FC6
:10395000DE01A959B94F2D913D914D915C91608146
:103960007181828193810F944D24F801608371836A
:1039700082839383FE01E759F94F85919591A59133
:10398000B491FE01E450F44F80839183A283B3830A
:10399000FE01EB58F94F85919591A591B491CA5CC0
:1039A000DD4F88839983AA83BB83DF91CF911F91D9
:1039B0000F910895089590E080E008958FB7F894EE
:1039C0009091D7052091D605291769F0E92FF0E0ED
:1039D000EA5AFA4F208130E09F5F9F779093D70596
:1039E0008FBFC90108952FEF3FEFFACF80E1EFE5D8
:1039F000F1E1A4EABDE001900D928A95E1F7089506
:103A000080E1E4EAFDE0AFE5B1E101900D928A9535
:103A1000E1F708950F931F93CF93DF93EC010E947A
:103A2000D0FC0E811F8128853985011511052105DE
:103A3000310579F52C85222339F1EA8521502C872F
:103A400021E02E0F2A873D85231301C01A86F0E05E
:103A50003196EE0FFF1FEE0FFF1FEC0FFD1F0285CB
:103A60001385248535850A831B832C833D83600F52
:103A7000711F811D911D6E837F83888799878C813B
:103A80009D81892B09F0409ADF91CF911F910F9171
:103A90000895601B710B820B930B97FDF5CF409837
:103AA0001E821F8218861986EFCF1092980D1092F1
:103AB000990D10929A0D10929B0D1092970D0C94E7
:103AC000DCFCCF92DF92EF92FF921F93CF93DF93B4
:103AD00000D01F92CDB7DEB7182F662351F0109299
:103AE000290510922505109226051092270510929F
:103AF00028050E94D0FCAB01BC0180912505909166
:103B00002605A0912705B09128056A017B01C81AF6
:103B1000D90AEA0AFB0AD701C601B7FD37C017FD6B
:103B200041C080912905212F012E000C330B2C5F01
:103B30003F4FE82F082E000CFF0B2E173F0734F1E4
:103B4000811784F180ED97E0A0E0B0E0840F951F2D
:103B5000A61FB71F8093250590932605A0932705E0
:103B6000B093280580ED97E09C838B838CE291E0F5
:103B70009A838983BE016D5F7F4FCE0101960E94BB
:103B800069F2809129058F5F809329050F900F902E
:103B90000F900F90DF91CF911F91FF90EF90DF90EA
:103BA000CF90089584EC99E0A0E0B0E0CFCFEF9201
:103BB0000F931F93CF93DF93CDB7DEB760970FB608
:103BC000F894DEBF0FBECDBF6D877E878F87988B41
:103BD000E090290CE4EAFDE080859185A285B3851B
:103BE00044815581668177810081118122813381F1
:103BF00009831A832B833C834D835E836F8378878D
:103C000089879A87AB87BC87AE01475F5F4FBE014C
:103C10006B5F7F4FCE0101960E945CCA8E01035FED
:103C20001F4F20EB3DE0AE01475F5F4FBE016B5F72
:103C30007F4FCE0101960E9442C660960FB6F8945F
:103C4000DEBF0FBECDBFDF91CF911F910F91EF90DF
:103C50000895CF92DF92EF92FF92CF93DF936A01A4
:103C60007B01CFE5D1E1E091290C24E0E29FF00156
:103C70001124E25DFD4F2081318142815381FC019D
:103C800060817181828193810F9429252C853D85E6
:103C90004E855F850F944D246C877D878E879F8727
:103CA000A5DEC701B60183DFDF91CF91FF90EF90D2
:103CB000DF90CF900C94D6BBEF920F931F93CF93CE
:103CC000DF93CDB7DEB72C970FB6F894DEBF0FBEEB
:103CD000CDBFE090290CEFE5F1E180859185A285CB
:103CE000B38544815581668177810081118122816C
:103CF000338109831A832B833C834D835E836F83D7
:103D0000788789879A87AB87BC87AE01475F5F4F0B
:103D1000BE016B5F7F4FCE0101960E945CCA0CE52D
:103D200012E02BE631E1AE01475F5F4FBE016B5FF2
:103D30007F4FCE0101960E9442C62C960FB6F89492
:103D4000DEBF0FBECDBFDF91CF911F910F91EF90DE
:103D500008958091B5049091B604009731F04AE03F
:103D600050E070E060E00D94021D60E070E0CB0177
:103D70000895EFDF97FD0AC0ECDF6F3F7105810505
:103D8000910509F02CF4E5DF862F089580E0089571
:103D90008FEF08958091B5049091B604892B39F086
:103DA000E8DF91E0811101C090E0892F089591E052
:103DB000FCCF8091B5049091B604009731F04AE0B1
:103DC00050E070E060E00D942D1E60E070E0CB01EB
:103DD00008952F923F924F925F926F927F928F92AF
:103DE0009F92AF92BF92CF92DF92EF92FF920F938A
:103DF0001F93CF93DF93EB01FC0180809180A28021
:103E0000B380C501B40120E831E541E050E00F94F2
:103E1000EF23C9016DE671E00F9415276B017C015A
:103E2000C501B40120E13EE040E050E00F94EF23F3
:103E3000CA01B90128E130E040E050E00F94EF23DF
:103E4000362E272E062F172F8CE3482E512C612C4F
:103E5000712CC501B401A30192010F94EF23B62E7A
:103E6000A72ECA01B901A30192010F94EF23CB0140
:103E7000C114D10469F1AF92BF927F936F932F92D7
:103E80003F92FF92EF92DF92CF9289E195E09F936C
:103E90008F93DF93CF930F947D1F8DB79EB70E96B0
:103EA0000FB6F8949EBF0FBE8DBFDF91CF911F91CB
:103EB0000F91FF90EF90DF90CF90BF90AF909F90C9
:103EC0008F907F906F905F904F903F902F900895CC
:103ED000E114F104C9F0AF92BF927F936F932F92D8
:103EE0003F92FF92EF9289E095E09F938F93DF934B
:103EF000CF930F947D1FEDB7FEB73C960FB6F894A5
:103F0000FEBF0FBEEDBFD1CF012BB9F0AF92BF9274
:103F10007F936F932F923F928DEF94E09F938F93B7
:103F2000DF93CF930F947D1F8DB79EB70A960FB680
:103F3000F8949EBF0FBE8DBFB8CF892BA9F0AF926A
:103F4000BF927F936F9385EF94E09F938F93DF935E
:103F5000CF930F947D1FEDB7FEB738960FB6F89448
:103F6000FEBF0FBEEDBFA1CFAF92BF9281EF94E035
:103F70009F938F93DF93CF930F947D1F0F900F909C
:103F80000F900F900F900F9090CF8091280C82FF90
:103F90000BC063E689EB91E00E948BA40E940DA503
:103FA0000E9463A481E0089580E008952F923F92DB
:103FB0004F925F926F927F928F929F92AF92BF9239
:103FC000CF92DF92EF92FF920F931F93CF93DF93E5
:103FD000CDB7DEB76D970FB6F894DEBF0FBECDBF7D
:103FE0009A8F898F7C8F6B8F10E000E02FEF2887EE
:103FF0003FEF3F838FEF888B9FE4998BE3ECEA8B55
:10400000F7E4FB8B21E030E0002E02C0220F331FCB
:104010000A94E2F7388F2F8B8EE794E09B878A878C
:10402000312C212C0D8FEA85FB8581919191FB87A5
:10403000EA872F89388D82239323892B09F0EBC0DF
:1040400080919E0690919F06089FB001099F700D78
:10405000189F700D112480919A0690919B06680F0D
:10406000791F072E000C880B990B0F94EA1F6C87A1
:104070007D878E879F878091A0069091A106289EBC
:10408000B001299E700D389E700D112480919C0600
:1040900090919D06680F791F072E000C880B990BD5
:1040A0000F94EA1F6B017C012C853D854E855F8551
:1040B000E98DFA8D60817181828193810F944C2406
:1040C0002B013C01A7019601EB8DFC8D6081718174
:1040D000828193810F944C244B015C01A3019201D6
:1040E000C301B2010F9449202B013C01A5019401A9
:1040F000C501B4010F9449209B01AC01C301B20179
:104100000F944D240F94B8264B015C012C853D85FE
:104110004E855F856091A2047091A3048091A404F0
:104120009091A5040F944C242B013C01A70196010A
:1041300060919E0470919F048091A0049091A104CD
:104140000F944C246B017C01A3019201C301B201C5
:104150000F9449202B013C01A7019601C701B6012C
:104160000F9449209B01AC01C301B2010F944D246F
:104170000F94B82620E030E040E751E40F94292561
:10418000A50194010F944D246B017C018090A6043D
:104190009090A704A090A804B090A90420E030E07B
:1041A00040E85FE3C501B4010F9473261816F4F4D8
:1041B000C501B4010F9491254B015C0160E070E0F2
:1041C000CB01181419041A041B0434F40F94551B62
:1041D000A50194010F9411240F94EA1F9B01AC01D7
:1041E000B601C7010F944D246B017C0128893989E0
:1041F0004A895B89B601C7010F94E41F87FF0BC092
:10420000FD8DF8872F82C986DC8AED8AFE8AC88AEE
:10421000D98AEA8AFB8A2A94232809F043C001300C
:104220001105E9F53F81E32FF0E0EE0FFF1FE258A3
:10423000FB4FC801088402C0880F991F0A94E2F757
:1042400020813181822B932B9183808389859C8966
:10425000AD89BE898B839C83AD83BE83482F5C81EF
:104260006D817E8128853F8180E090E06D960FB65C
:10427000F894DEBF0FBECDBFDF91CF911F910F919C
:10428000FF90EF90DF90CF90BF90AF909F908F9076
:104290007F906F905F904F903F902F90089501E036
:1042A00010E0B0CE22242394312CBDCEAF92BF9229
:1042B000CF92DF92EF92FF920F931F93CF93DF93F2
:1042C0001F92CDB7DEB76C018B0159018091890631
:1042D00081111BC07B01E40EF51EF60180819181E6
:1042E0000F94A9238983F80181938F01BE016F5F29
:1042F0007F4FC5010E9422F7F601808191810196CE
:1043000091838083E016F10641F70F90DF91CF9102
:104310001F910F91FF90EF90DF90CF90BF90AF90E3
:104320000895FC0120E03EE2DB014D91BD014032E9
:1043300049F0283011F430833196DB0111974C910C
:10434000408331962F5F2B3079F71082089561E01A
:10435000FC0180810C9495F88EBD0DB407FEFDCF55
:1043600008958FEF8EBD0DB407FEFDCF8EB5089575
:104370008F929F92AF92BF92EF92FF920F931F93F3
:10438000CF937C01C62F49015A01FC019281892FEC
:10439000806A86958CBD90FD03C081E0963009F45B
:1043A00080E08DBD60E0F70180810E9495F88CE28D
:1043B00091E00E949CFD8C2F8064CEDF08E110E02C
:1043C000D501C401002E04C0B695A7959795879591
:1043D0000A94D2F7C1DF08501109083FFFEF1F0709
:1043E00079F785E9CC2321F087E8C83009F08FEF11
:1043F000B3DFCC3009F4B5DFC0E0B3DFF70183836E
:1044000087FF04C0CF3F11F0CF5FF7CFCF911F914F
:104410000F91FF90EF90BF90AF909F908F90089575
:104420000F931F93CF93DF93EC0189018C8183302D
:1044300039F089E0440F551F661F771F8A95D1F721
:104440009A01AB0168E1CE0193DF882319F086E081
:10445000898335C08EEF8EBDF801C8019E5F0DB413
:1044600007FEFDCF20812EBD0DB407FEFDCF2181BB
:104470002EBD3296E817F90791F70DB407FEFDCF70
:104480008FEF6ADF8FEF68DF6CDF8B838F71853092
:1044900091F488E592E00E949CFD182F87E111239A
:1044A000B9F220E030E0A9016DE0CE0161DF8823A0
:1044B00051F086E1CDCF83E18983CE0148DFCE0183
:1044C00046DF10E005C04DDF8111F3CFCE013FDFA5
:1044D000812FDF91CF911F910F910895CF938091FC
:1044E000C80FC1E0882399F04091C00F5091C10FCF
:1044F0006091C20F7091C30F20EC3DE08091C90F15
:104500009091CA0F8DDFC82F811104C0C0E08C2F9D
:10451000CF9108954091C40F5091C50F6091C60F7F
:104520007091C70F411551056105710589F020ECA7
:104530003DE08091C90F9091CA0F72DF882331F35B
:104540001092C40F1092C50F1092C60F1092C70F91
:104550001092C80FDCCFEF92FF920F931F93CF936F
:10456000DF93EC0179018C81833039F089E0440FCD
:10457000551F661F771F8A95D1F79A01AB0161E13C
:10458000CE01F6DE882331F084E08983CE01DFDEC0
:1045900080E034C00E94D0FC8B01E3DE8B838F3F30
:1045A00071F40E94D0FC601B710B6D327140A8F356
:1045B00081E18983CE01CBDE8FEFCEDEE9CF8E3F66
:1045C00011F08FE0F6CF8FEF8EBDF701D701A1502C
:1045D000BE4F0DB407FEFDCF9EB591938EBDAE17B5
:1045E000BF07B9F70DB407FEFDCF8EB58C93B9DECA
:1045F000B8DECE01ACDE8FEFAFDE81E0DF91CF9190
:104600001F910F91FF90EF900895CF92DF92EF925C
:10461000FF92CF936B017C01C42F8091C00F9091CA
:10462000C10FA091C20FB091C30F8C159D05AE05AF
:10463000BF05F1F053DF811108C0C0E08C2FCF918E
:10464000FF90EF90DF90CF90089520EC3DE0B70110
:10465000A6018091C90F9091CA0F7DDF882369F36D
:10466000C092C00FD092C10FE092C20FF092C30F60
:10467000CC2321F081E08093C80FE0CFC1E0DECFF2
:104680004F925F926F927F928F929F92AF92BF9262
:10469000CF92DF92EF92FF920F931F93CF93DF930E
:1046A000EC01423051056105710590F480E0DF9125
:1046B000CF911F910F91FF90EF90DF90CF90BF901F
:1046C000AF909F908F907F906F905F904F900895E4
:1046D00089859A85AB85BC850196A11DB11D84177E
:1046E0009507A607B70710F38F898031C1F5852E8E
:1046F000962EA72EBB248B899C89AD89BE89880EF6
:10470000991EAA1EBB1E280139016A017B0141E0E6
:10471000C501B4017ADF882349F29F89903181F580
:10472000DD24EE24FF24F601EE0FFF1FE054F24FCC
:10473000118300839A89923008F4B9CF4D815E814C
:104740006F817885840E951EA61EB71E8092C40FB9
:104750009092C50FA092C60FB092C70FA8CF80321B
:1047600009F0A4CF8B899C89AD89BE894A015B0180
:10477000E7E0B694A79497948794EA95D1F7BFCFD2
:10478000E894C7F8DD24EE24FF24F601EE0FFF1FA6
:10479000EE0FFF1FE054F24F40825182628273821B
:1047A000C9CFCF92DF92EF92FF920F931F93CF93D7
:1047B000DF93FC0181859285A385B4850196A11DB7
:1047C000B11D84179507A607B70750F480E0DF9165
:1047D000CF911F910F91FF90EF90DF90CF900895B0
:1047E00087898031A9F5BB27A72F962F852FC388EE
:1047F000D488E588F6888C0D9D1DAE1DBF1DE9018E
:104800006A017B018F014091C00F5091C10F6091EF
:10481000C20F7091C30F84179507A607B70749F514
:10482000F8018789803161F5B701A6015527662710
:104830007727440F551F4054524FFA0180819181D0
:10484000B0E0A0E088839983AA83BB8381E0BFCFD7
:10485000803209F0BBCFC388D488E588F688DB01B5
:10486000CA01C7E0B695A79597958795CA95D1F7E0
:10487000C2CF40E0BC01CD01C8DE8111D1CFA6CFAF
:10488000B701A6014F77552766277727440F551F95
:10489000440F551F4054524FFA0180819181A281EB
:1048A000B381BF70CFCF4F925F926F927F92AF92E2
:1048B000BF92CF92DF92EF92FF920F931F93CF930D
:1048C000DF9300D01F92CDB7DEB78C0149835A83A6
:1048D0006B837C835901C12CD12C7601412C82E061
:1048E000582E612C712C49815A816B817C819E01EB
:1048F0002F5F3F4FC80155DF882319F1F8018585E7
:10490000A301920104C0220F331F441F551F8A9533
:10491000D2F7DA01C901C80ED91EEA1EFB1E498171
:104920005A816B817C8187898031F1F481E0483F35
:104930005F4F61057105B8F2F501C082D182E28254
:10494000F3820F900F900F900F90DF91CF911F91F6
:104950000F91FF90EF90DF90CF90BF90AF907F903E
:104960006F905F904F90089581E0483F5F4F6F4F89
:104970007F4008F4B8CFE0CF0F931F93CF93DF931E
:10498000FC012381222331F080E0DF91CF911F9140
:104990000F9108958B01EC01FB018789803139F576
:1049A00082E08B831D8A1E8A1F8A188E808D918DCE
:1049B000B0E0A0E025E0880F991FAA1FBB1F2A9531
:1049C000D1F7898B9A8BAB8BBC8B1A8F098F81E0C7
:1049D0008983188619861A861B861C821D821E8270
:1049E0001F82188A1C861D861E861F86CECF8032A7
:1049F00059F683E08B83428D538D648D758D4D8B7D
:104A00005E8B6F8B788F9E012F5E3F4FC8014BDF0F
:104A10008111DBCFB9CF8F929F92AF92BF92CF928D
:104A2000DF92EF92FF920F931F93CF93DF93EC01EE
:104A30008B8181110EC080E0DF91CF911F910F918A
:104A4000FF90EF90DF90CF90BF90AF909F908F90AE
:104A5000089509891A892B893C89041715072607A7
:104A6000370748F34A015B01823031F48886998622
:104A7000AA86BB8681E0E0CF81149104A104B10431
:104A800049F4188619861A861B861C821D821E828E
:104A90001F82F0CF088519852A853B85E98DFA8D1F
:104AA000858590E00996B901A80141505109610935
:104AB0007109082E04C076956795579547950A9415
:104AC000D2F775016401E1E0CE1AD108E108F108DE
:104AD00004C0F694E794D794C7948A95D2F7C41685
:104AE000D506E606F70620F0012B022B032B09F56D
:104AF0008D899E89AF89B88D8C839D83AE83BF835A
:104B00008E010C5F1F4FC114D104E104F10409F4BC
:104B1000ADCF4C815D816E817F819801898D9A8DA9
:104B200040DE91E0C91AD108E108F1088111EBCF0C
:104B300082CFC41AD50AE60AF70AE2CF40E050E075
:104B4000BA0169CF3F924F925F926F927F928F929C
:104B50009F92AF92BF92CF92DF92EF92FF920F930C
:104B60001F93CF93DF93CDB7DEB72C970FB6F89492
:104B7000DEBF0FBECDBF5C01DC0159968D909C90CD
:104B8000F40181859285A385B4859C01AD012F5FD9
:104B90003F4F4F4F5F4F29873A874B875C87D5013F
:104BA00014964D905D906D907C9017974114510430
:104BB0006104710409F458C0BFEF4B1A5B0A6B0A19
:104BC0007B0A312C730162011D821E821F821886AE
:104BD000F40181859285A385B4852D813E814F8125
:104BE0005885281739074A075B0708F054C089859C
:104BF0009A85AB85BC858C159D05AE05BF0550F427
:104C000082E0C82ED12CE12CF12C92E0492E512CBF
:104C1000612C712C9E012F5F3F4FB701A601C4018B
:104C2000C0DD8823C1F189819A81AB81BC81892B48
:104C30008A2B8B2B01F1260137019FEF491A590A64
:104C4000690A790A2D813E814F8158852F5F3F4F38
:104C50004F4F5F4F2D833E834F8358873FEFC31ADB
:104C6000D30AE30AF30AB4CF408051806280738094
:104C700033243394A7CFC414D504E604F70411F702
:104C80000FEF1FEF2FEF3FE0B701A601C401F8DCE3
:104C9000782E81111AC0712C872D2C960FB6F8949E
:104CA000DEBF0FBECDBFDF91CF911F910F91FF905F
:104CB000EF90DF90CF90BF90AF909F908F907F90BC
:104CC0006F905F904F903F900895F501448155811A
:104CD00066817781411551056105710531F09701B4
:104CE0008601C401CDDC8823B1F2D5011496CD92A2
:104CF000DD92ED92FC921797332051F0D701C60157
:104D00000196A11DB11DF40180839183A283B38319
:104D1000F50185899689A789B08D892B8A2B8B2BE4
:104D200009F0BACFC58AD68AE78AF08E8181806879
:104D30008183B2CFCF93DF93EC01462F41706C8516
:104D40007D858E859F8561DC882351F0888920E2EE
:104D5000829FC00111248054924FDF91CF9108951A
:104D600090E080E0FACFCF93DF93EC018B81882332
:104D700039F1898187FF21C061E0CE01DBDFFC01D1
:104D8000892BF1F08081853ED9F08B81823040F40F
:104D900089899A89AB89BC89848F958FA68FB78FB3
:104DA0008D899E89938F828F8D899E89AF89B88DD9
:104DB000B58BA48B89818F778983DF91CF918ECB3F
:104DC00081E0888380E0DF91CF9108952F923F9218
:104DD0004F925F926F927F928F929F92AF92BF920B
:104DE000CF92DF92EF92FF920F931F93CF93DF93B7
:104DF00000D01F92CDB7DEB78C014B011A01DC0148
:104E000013968C911397813009F0C7C011968C913D
:104E100081FFC3C082FDAEC06101D80118964D91DB
:104E20005D916D917C911B97C114D10409F414C15B
:104E300059968D919C915A97FC0174802FEF270D04
:104E40002A013B0139E076946794579447943A9548
:104E5000D1F7722E74207A01F1E0FF2271101FC089
:104E6000E114F104E1F414964D915D916D917C9102
:104E70001797411551056105710509F094C05596C4
:104E80008D919D910D90BC91A02D0097A105B1052C
:104E900009F0A1C0C80156DE882309F47EC080E075
:104EA00092E08E199F0956018C159D0508F45C014E
:104EB000D80159964D915C915A9714968D919D9178
:104EC0000D90BC91A02D0297A109B109FA01258589
:104ED00004C0880F991FAA1FBB1F2A95D2F74685C9
:104EE000578560897189840F951FA61FB71F9C0184
:104EF000AD01270D311D411D511D29013A01A1149C
:104F000032E0B30609F075C08091C00F9091C10FD7
:104F1000A091C20FB091C30F481659066A067B06CE
:104F200069F41092C80F8FEF9FEFDC018093C00FE0
:104F30009093C10FA093C20FB093C30F9401B3011C
:104F4000A2018091C90F9091CA0F6ADA882329F1D2
:104F5000F80180859185A285B3858A0D9B1DA11DD1
:104F6000B11D80879187A287B3878A0C9B1CCA18C2
:104F7000DB0853CFF80141895289638974898085A0
:104F80009185A285B385481759076A077B0709F4FD
:104F900043CFC80140DD81113FCF81E0D8018C9320
:104FA0008FEF9FEF6FC09E012F5F3F4FFADB88238B
:104FB000A1F389819A81AB81BC81F801218D328D69
:104FC000F9012789203169F4883FFFEF9F07A10588
:104FD000B10508F05FCFF80184839583A683B7837A
:104FE0005ECF883F2FEF9207A2072FE0B20798F31A
:104FF00051CFE114F10449F5D80118964D915D9116
:105000006D917C911B9751968D919D910D90BC91C6
:10501000A02D481759076A077B07B8F05FDA882385
:1050200009F4BBCF81E08093C80F4092C00F50922B
:10503000C10F6092C20F7092C30FA501B401C701E6
:105040008054924F0F94592783CF41E0C301B2019E
:10505000DCDA8111F2CFA1CFF80181899289A3898D
:10506000B48984179507A607B70738F48181418B67
:10507000528B638B748B80688183F801818183FDFF
:1050800018C0C1010F900F900F900F90DF91CF913A
:105090001F910F91FF90EF90DF90CF90BF90AF9056
:1050A0009F908F907F906F905F904F903F902F9048
:1050B0000895C80158DE8111E4CF6FCFCF93DF93FD
:1050C0001F92CDB7DEB7698341E050E0BE016F5F4C
:1050D0007F4F04967BDE0F90DF91CF910895CF93A1
:1050E000DF93EC0140DE1B82DF91CF910895FC013C
:1050F00023812111F4CF0895CF93DF93EB01FC01BD
:105100002381211104C080E0DF91CF9108952250C6
:10511000223028F48FE28883198281E0F5CF60E0A5
:1051200009DE009781F3DC0160E080E09EE22D91D2
:10513000203299F0883031F49E01260F311DF9019B
:1051400090836F5F9E01260F311DAD0141505109C3
:10515000FA014081F90140836F5F8F5F8B3039F72F
:10516000FE01E60FF11D1082D8CF0F931F93CF934E
:10517000DF938B01EA01DB016D917C910496BCDF2A
:10518000D801ED91FC91119788819081992349F084
:105190008D38A0F43196ED93FC9388818F5F8883DE
:1051A000EFCF8D3858F48FE28083F80180819181B0
:1051B00001969183808388818F5F8883DF91CF916F
:1051C0001F910F9108952F923F924F925F926F928D
:1051D0007F928F929F92AF92BF92CF92DF92EF9287
:1051E000FF920F931F93CF93DF9300D01F92CDB701
:1051F000DEB79C838B834B017A01DC0113968C9183
:10520000811119C08FEF9FEF0F900F900F900F90AB
:10521000DF91CF911F910F91FF90EF90DF90CF9092
:10522000BF90AF909F908F907F906F905F904F90C6
:105230003F902F900895EB81FC81818180FFE2CF28
:105240000189128923893489408551856285738556
:10525000C701B0E0A0E028013901441A550A660AE6
:10526000770A481659066A067B0618F47801E41A8C
:10527000F50A67018B819C8104969A838983612C4E
:1052800032E0732EC114D10409F4B4C0AB81BC81E7
:1052900018964D915D916D917C911B975A01B1E0EB
:1052A000BB22EB81FC81818D928D1A012B0129E0BB
:1052B00056944794379427942A95D1F72381223026
:1052C00089F5DC015A966D917D918D919C915D9748
:1052D000620D731D841D951D83010A191B09C016DB
:1052E000D10608F486010115B2E01B0771F4209184
:1052F000C00F3091C10F4091C20F5091C30F621780
:1053000073078407950709F057C040E07ED98823CA
:1053100009F478CFB5016054724FA801C4010F940D
:10532000592755C0FC01148111501221A114B10458
:1053300081F411110EC0452B462B472B79F5EB81DB
:10534000FC8185899689A789B08D84839583A683FE
:10535000B783AB81BC815996ED91FC915A97149615
:105360006D917D918D919C91179762507109810982
:105370009109258504C0660F771F881F991F2A95FC
:10538000D2F72685378540895189620F731F841FA4
:10539000951F610F711D811D911D9ECFAB81BC8139
:1053A00014964D915D916D917C91179729813A8169
:1053B000F8D98111CECF26CF9401AB01BC018091E9
:1053C000C90F9091CA0FC7D8882309F41BCF800E4C
:1053D000911EEB81FC8180859185A285B385800F2C
:1053E000911FA11DB11D80879187A287B387C01A25
:1053F000D10A48CFC70108CFDF92EF92FF920F93F7
:105400001F93CF93DF938C01EB017A018DE0D82EAF
:1054100040E250E0BE01C801D6DE8032910571F055
:1054200021E0892B09F420E0822F8195DF91CF9133
:105430001F910F91FF90EF90DF9008952881222314
:10544000C1F1253E29F32E3219F3E114F10439F1AB
:105450003B853F733F3019F54A8D5B8D452BF9F441
:105460002F713FEF320F3230D0F42150330BD29EE8
:10547000C001D39E900D1124D701A80FB91FFE01C2
:1054800020E0AD01253078F431813D932F5F3296D5
:105490002D30C1F7288126FF02C0FA0115862B8521
:1054A00023FDB6CFC3CF2B3010F43481EECF36813D
:1054B000ECCF80E0BBCF4F925F926F927F92AF9222
:1054C000BF92CF92DF92EF92FF920F931F93CF93F1
:1054D000DF931F92CDB7DEB78C017B015A01C22E3C
:1054E000DB0159968D919C91F801928F818FCB01B0
:1054F00025DB712CF70180859185A285B3854189D3
:1055000052896389748984179507A607B70708F03D
:1055100051C055E0B695A795979587955A95D1F7BF
:10552000F82FFF70DF2ED70113968C91823010F484
:1055300080E0D9C041E050E0BE016F5F7F4FC701FE
:1055400042DE0197A9F7F70180859185A285B38591
:105550004F96A11DB11D80879187A287B387F0E286
:10556000DF9EB00111246054724F6115710501F383
:10557000DB018C91882341F0853E09F04BC07720F8
:1055800029F077247394B6CF71100EC08091C00FAC
:105590009091C10FA091C20FB091C30FF801848701
:1055A0009587A687B787D08ADB018C918111E9CFD7
:1055B000772473948C2D8274823409F0B9CF7720CC
:1055C00009F4A1C0F801D08861E0C801B3DB0097FD
:1055D00009F4AECF20E2DC011D922A95E9F72BE019
:1055E000F501DC0101900D922A95E1F721E238E204
:1055F000FC01318B208B40E058E057874687338B86
:10560000228B318F208F578B468B0E946E22811107
:1056100009C08ECF4BE050E0C5010F944C27892B79
:1056200009F068CFF0E2DF9ED00111249D012054E3
:10563000324FF9018385817121F08C2D827109F03F
:10564000FAC0F801818D928D4091C00F5091C10F29
:105650006091C20F7091C30F448755876687778723
:10566000D08AFD01E054F24F44885588712C612C9A
:10567000320155244424D80155964D925D926D9285
:105680007C925897428D538D70E060E044295529F3
:105690006629772955964D935D936D937C93589722
:1056A000D9011B962C91287109F0B8C0848D958D75
:1056B000A68DB78DF801818B928BA38BB48B81E083
:1056C00083838C2D8F70F80181831482158216825A
:1056D0001782108611861286138681E0C4FE03C0ED
:1056E000C8010E942FF40F90DF91CF911F910F916D
:1056F000FF90EF90DF90CF90BF90AF907F906F9032
:105700005F904F900895D70113968C911397823034
:1057100009F40ECF51968D919D910D90BC91A02DC5
:10572000803E9F4FAF41B10508F002CFC7010ADAB2
:10573000882309F4FDCE0E946E22882309F4F8CE56
:10574000D7015996ED91FC915A9714964D905D9022
:105750006D907C901797B2E04B1A51086108710860
:10576000858504C0440C551C661C771C8A95D2F7AD
:1057700086859785A089B189480E591E6A1E7B1EB1
:1057800081E08093C80F4092C00F5092C10F609289
:10579000C20F7092C30FE0ECFDE080E092E0DF0109
:1057A0009C011D9221503040E1F7DD24D394D701B4
:1057B0005996ED91FC918481D81698F420EC3DE047
:1057C000B301A2014D0D511D611D711D8091C90FC5
:1057D0009091CA0F0E941022882309F4A9CED39475
:1057E000E6CF258580E092E0A0E0B0E004C0880F1D
:1057F000991FAA1FBB1F2A95D2F7F7014189528929
:1058000063897489840F951FA61FB71F818B928BA4
:10581000A38BB48B80EC9DE0D12CDCCE203159F4ED
:1058200098012F5E3F4F3FD8882329F084E0D801AC
:1058300013968C9346CFD80113961C9279CE2F9253
:105840003F924F925F926F927F928F929F92AF9210
:10585000BF92CF92DF92EF92FF920F931F93CF935D
:10586000DF93CDB7DEB7C354D1090FB6F894DEBFCE
:105870000FBECDBF4C015B016A01222E19821C8232
:105880001C8E1F8E6115710511F510E0CE014C962E
:105890002EDCCE0101962BDC812FCD5BDF4F0FB6C6
:1058A000F894DEBF0FBECDBFDF91CF911F910F9156
:1058B000FF90EF90DF90CF90BF90AF909F908F9030
:1058C0007F906F905F904F903F902F900895FC01D4
:1058D00083818111DACFFA0180818F32A9F18B01A6
:1058E000CE0101967C013C0180E2382E2E019CE124
:1058F000490E511C2396EFAE23972496FFAE2497B2
:1059000022963FAE229721963FAE21973FAE3EAE04
:105910003DAE3CAE3BAE3AAE39AE38AE3FAA960194
:1059200090E047E0D9018D91882309F447C08F3278
:1059300009F444C0282F8E3201F54A3009F4A5CF6E
:1059400098E04AE09D01EECFFB01838182508B01FC
:10595000823058F0618D728DCE014C960DD88E013B
:10596000045E1F4F882309F490CFC6016C01019695
:10597000F60120812F32D1F3B3CFE2EFF1E1349180
:10598000332321F031968313FACF7FCF491708F4E0
:105990007CCF813208F479CF8F3709F476CF3FE995
:1059A000380F3A3110F420EE280FE7E3F0E0EC0F67
:1059B000FD1FE90FF11D20839F5FC4CF8FA98032A7
:1059C00009F463CF6901F90180812F5F3F4F8F3266
:1059D000C9F38823F1F021E0AE01495C5F4FB801C3
:1059E000C70169DD882309F450CF0A151B0511F0A2
:1059F000C80175DB942D852D6E147F0431F023963C
:105A00009FAD239724968FAD24978701E92EF82E1A
:105A100077CF222DAE01495C5F4FB801C4014BDD49
:105A2000182F34CF20E233E0FC0131832083049629
:105A30005ECBCF93DF93EC0190E080E00E9483BBCC
:105A400060930406709305068093060690930706FC
:105A500081E090E00E9483BB609308067093090682
:105A600080930A0690930B0682E090E00E9483BB2D
:105A700060930C0670930D0680930E0690930F06AC
:105A800084E096E00E9429CAC436D10561F48CE016
:105A9000E4E0F6E0AFE5B1E101900D928A95E1F71F
:105AA000DF91CF910895CC0FDD1FCC0FDD1FFE01DC
:105AB000E15AFE4ECC5FD94F88819981AA81BB8182
:105AC00080839183A283B383EBCF4F925F926F92D7
:105AD0007F928F929F92AF92BF92CF92DF92EF927E
